{
  "contractName": "Carrier",
  "abi": [
    {
      "constant": false,
      "inputs": [
        {
          "name": "dougAddress",
          "type": "address"
        }
      ],
      "name": "setDougAddress",
      "outputs": [
        {
          "name": "",
          "type": "bool"
        }
      ],
      "payable": false,
      "stateMutability": "nonpayable",
      "type": "function"
    },
    {
      "constant": true,
      "inputs": [],
      "name": "getDougAddress",
      "outputs": [
        {
          "name": "",
          "type": "address"
        }
      ],
      "payable": false,
      "stateMutability": "view",
      "type": "function"
    },
    {
      "constant": false,
      "inputs": [],
      "name": "remove",
      "outputs": [],
      "payable": false,
      "stateMutability": "nonpayable",
      "type": "function"
    },
    {
      "constant": false,
      "inputs": [
        {
          "name": "policyNumber",
          "type": "bytes32"
        },
        {
          "name": "carrier",
          "type": "address"
        },
        {
          "name": "owner",
          "type": "address"
        },
        {
          "name": "effectiveDate",
          "type": "bytes32"
        },
        {
          "name": "expirationDate",
          "type": "bytes32"
        }
      ],
      "name": "createCoi",
      "outputs": [
        {
          "name": "result",
          "type": "bool"
        }
      ],
      "payable": false,
      "stateMutability": "nonpayable",
      "type": "function"
    },
    {
      "constant": true,
      "inputs": [
        {
          "name": "policyNumber",
          "type": "bytes32"
        }
      ],
      "name": "getCoi",
      "outputs": [
        {
          "name": "_carrier",
          "type": "address"
        },
        {
          "name": "_owner",
          "type": "address"
        },
        {
          "name": "_status",
          "type": "uint8"
        },
        {
          "name": "_effectiveDate",
          "type": "bytes32"
        },
        {
          "name": "_expirationDate",
          "type": "bytes32"
        }
      ],
      "payable": false,
      "stateMutability": "view",
      "type": "function"
    },
    {
      "constant": true,
      "inputs": [
        {
          "name": "policyNumber",
          "type": "bytes32"
        }
      ],
      "name": "isCOIActive",
      "outputs": [
        {
          "name": "result",
          "type": "bool"
        }
      ],
      "payable": false,
      "stateMutability": "view",
      "type": "function"
    },
    {
      "constant": false,
      "inputs": [
        {
          "name": "policyNumber",
          "type": "bytes32"
        }
      ],
      "name": "cancelCOI",
      "outputs": [
        {
          "name": "result",
          "type": "bool"
        }
      ],
      "payable": false,
      "stateMutability": "nonpayable",
      "type": "function"
    }
  ],
  "bytecode": "0x6060604052341561000f57600080fd5b6110998061001e6000396000f300606060405260043610610083576000357c0100000000000000000000000000000000000000000000000000000000900463ffffffff1680631875f74b1461008857806380e2653e146100c757806381352c1114610118578063921ae01d146101af578063a7f4377914610204578063b003c75314610219578063ba24919214610258575b600080fd5b341561009357600080fd5b6100ad600480803560001916906020019091905050610325565b604051808215151515815260200191505060405180910390f35b34156100d257600080fd5b6100fe600480803573ffffffffffffffffffffffffffffffffffffffff169060200190919050506105da565b604051808215151515815260200191505060405180910390f35b341561012357600080fd5b61019560048080356000191690602001909190803573ffffffffffffffffffffffffffffffffffffffff1690602001909190803573ffffffffffffffffffffffffffffffffffffffff1690602001909190803560001916906020019091908035600019169060200190919050506106c8565b604051808215151515815260200191505060405180910390f35b34156101ba57600080fd5b6101c2610a09565b604051808273ffffffffffffffffffffffffffffffffffffffff1673ffffffffffffffffffffffffffffffffffffffff16815260200191505060405180910390f35b341561020f57600080fd5b610217610a32565b005b341561022457600080fd5b61023e600480803560001916906020019091905050610ac3565b604051808215151515815260200191505060405180910390f35b341561026357600080fd5b61027d600480803560001916906020019091905050610d78565b604051808673ffffffffffffffffffffffffffffffffffffffff1673ffffffffffffffffffffffffffffffffffffffff1681526020018573ffffffffffffffffffffffffffffffffffffffff1673ffffffffffffffffffffffffffffffffffffffff1681526020018460028111156102f157fe5b60ff168152602001836000191660001916815260200182600019166000191681526020019550505050505060405180910390f35b60008060008060009054906101000a900473ffffffffffffffffffffffffffffffffffffffff1673ffffffffffffffffffffffffffffffffffffffff1663e16c7d986000604051602001526040518163ffffffff167c010000000000000000000000000000000000000000000000000000000002815260040180807f636f694d616e61676572000000000000000000000000000000000000000000008152506020019050602060405180830381600087803b15156103e257600080fd5b6102c65a03f115156103f357600080fd5b5050506040518051905091508173ffffffffffffffffffffffffffffffffffffffff163373ffffffffffffffffffffffffffffffffffffffff1614151561043957600080fd5b6000809054906101000a900473ffffffffffffffffffffffffffffffffffffffff1673ffffffffffffffffffffffffffffffffffffffff1663e16c7d986000604051602001526040518163ffffffff167c010000000000000000000000000000000000000000000000000000000002815260040180807f63617272696572444200000000000000000000000000000000000000000000008152506020019050602060405180830381600087803b15156104f157600080fd5b6102c65a03f1151561050257600080fd5b50505060405180519050905060008173ffffffffffffffffffffffffffffffffffffffff161415151561053457600080fd5b8073ffffffffffffffffffffffffffffffffffffffff16631875f74b856000604051602001526040518263ffffffff167c0100000000000000000000000000000000000000000000000000000000028152600401808260001916600019168152602001915050602060405180830381600087803b15156105b357600080fd5b6102c65a03f115156105c457600080fd5b5050506040518051905092508292505050919050565b6000806000809054906101000a900473ffffffffffffffffffffffffffffffffffffffff1673ffffffffffffffffffffffffffffffffffffffff161415801561067057506000809054906101000a900473ffffffffffffffffffffffffffffffffffffffff1673ffffffffffffffffffffffffffffffffffffffff163373ffffffffffffffffffffffffffffffffffffffff1614155b1561067e57600090506106c3565b816000806101000a81548173ffffffffffffffffffffffffffffffffffffffff021916908373ffffffffffffffffffffffffffffffffffffffff160217905550600190505b919050565b60008060008060009054906101000a900473ffffffffffffffffffffffffffffffffffffffff1673ffffffffffffffffffffffffffffffffffffffff1663e16c7d986000604051602001526040518163ffffffff167c010000000000000000000000000000000000000000000000000000000002815260040180807f636f694d616e61676572000000000000000000000000000000000000000000008152506020019050602060405180830381600087803b151561078557600080fd5b6102c65a03f1151561079657600080fd5b5050506040518051905091508173ffffffffffffffffffffffffffffffffffffffff163373ffffffffffffffffffffffffffffffffffffffff161415156107dc57600080fd5b6000809054906101000a900473ffffffffffffffffffffffffffffffffffffffff1673ffffffffffffffffffffffffffffffffffffffff1663e16c7d986000604051602001526040518163ffffffff167c010000000000000000000000000000000000000000000000000000000002815260040180807f63617272696572444200000000000000000000000000000000000000000000008152506020019050602060405180830381600087803b151561089457600080fd5b6102c65a03f115156108a557600080fd5b50505060405180519050905060008173ffffffffffffffffffffffffffffffffffffffff16141515156108d757600080fd5b8073ffffffffffffffffffffffffffffffffffffffff166381352c1189898989896000604051602001526040518663ffffffff167c01000000000000000000000000000000000000000000000000000000000281526004018086600019166000191681526020018573ffffffffffffffffffffffffffffffffffffffff1673ffffffffffffffffffffffffffffffffffffffff1681526020018473ffffffffffffffffffffffffffffffffffffffff1673ffffffffffffffffffffffffffffffffffffffff1681526020018360001916600019168152602001826000191660001916815260200195505050505050602060405180830381600087803b15156109de57600080fd5b6102c65a03f115156109ef57600080fd5b505050604051805190509250829250505095945050505050565b60008060009054906101000a900473ffffffffffffffffffffffffffffffffffffffff16905090565b6000809054906101000a900473ffffffffffffffffffffffffffffffffffffffff1673ffffffffffffffffffffffffffffffffffffffff163373ffffffffffffffffffffffffffffffffffffffff161415610ac1576000809054906101000a900473ffffffffffffffffffffffffffffffffffffffff1673ffffffffffffffffffffffffffffffffffffffff16ff5b565b60008060008060009054906101000a900473ffffffffffffffffffffffffffffffffffffffff1673ffffffffffffffffffffffffffffffffffffffff1663e16c7d986000604051602001526040518163ffffffff167c010000000000000000000000000000000000000000000000000000000002815260040180807f636f694d616e61676572000000000000000000000000000000000000000000008152506020019050602060405180830381600087803b1515610b8057600080fd5b6102c65a03f11515610b9157600080fd5b5050506040518051905091508173ffffffffffffffffffffffffffffffffffffffff163373ffffffffffffffffffffffffffffffffffffffff16141515610bd757600080fd5b6000809054906101000a900473ffffffffffffffffffffffffffffffffffffffff1673ffffffffffffffffffffffffffffffffffffffff1663e16c7d986000604051602001526040518163ffffffff167c010000000000000000000000000000000000000000000000000000000002815260040180807f63617272696572444200000000000000000000000000000000000000000000008152506020019050602060405180830381600087803b1515610c8f57600080fd5b6102c65a03f11515610ca057600080fd5b50505060405180519050905060008173ffffffffffffffffffffffffffffffffffffffff1614151515610cd257600080fd5b8073ffffffffffffffffffffffffffffffffffffffff1663b003c753856000604051602001526040518263ffffffff167c0100000000000000000000000000000000000000000000000000000000028152600401808260001916600019168152602001915050602060405180830381600087803b1515610d5157600080fd5b6102c65a03f11515610d6257600080fd5b5050506040518051905092508292505050919050565b60008060008060008060008060009054906101000a900473ffffffffffffffffffffffffffffffffffffffff1673ffffffffffffffffffffffffffffffffffffffff1663e16c7d986000604051602001526040518163ffffffff167c010000000000000000000000000000000000000000000000000000000002815260040180807f636f694d616e61676572000000000000000000000000000000000000000000008152506020019050602060405180830381600087803b1515610e3b57600080fd5b6102c65a03f11515610e4c57600080fd5b5050506040518051905091508173ffffffffffffffffffffffffffffffffffffffff163373ffffffffffffffffffffffffffffffffffffffff16141515610e9257600080fd5b6000809054906101000a900473ffffffffffffffffffffffffffffffffffffffff1673ffffffffffffffffffffffffffffffffffffffff1663e16c7d986000604051602001526040518163ffffffff167c010000000000000000000000000000000000000000000000000000000002815260040180807f63617272696572444200000000000000000000000000000000000000000000008152506020019050602060405180830381600087803b1515610f4a57600080fd5b6102c65a03f11515610f5b57600080fd5b50505060405180519050905060008173ffffffffffffffffffffffffffffffffffffffff1614151515610f8d57600080fd5b8073ffffffffffffffffffffffffffffffffffffffff1663ba24919289600060405160a001526040518263ffffffff167c010000000000000000000000000000000000000000000000000000000002815260040180826000191660001916815260200191505060a060405180830381600087803b151561100c57600080fd5b6102c65a03f1151561101d57600080fd5b50505060405180519060200180519060200180519060200180519060200180519050809750819850829950839a50849b5050505050508686868686965096509650965096505050919395909294505600a165627a7a7230582093ef68cea52ac09dab2d2235362ace83fa99076ad854b48027f0c6f83972589b0029",
  "source": "pragma solidity ^0.4.4;\nimport \"./DougEnabled.sol\";\nimport \"./Doug.sol\";\nimport \"./DataHelper.sol\";\nimport \"./CarrierDB.sol\";\n\ncontract Carrier is DougEnabled {\n    function createCoi(\n        bytes32 policyNumber,\n        address carrier,\n        address owner,\n        bytes32 effectiveDate,\n        bytes32 expirationDate\n    )\n        public returns (bool result)\n    {\n        address manager = Doug(DOUG).getContract(\"coiManager\");\n        require (msg.sender == manager);\n        address carrierDb = Doug(DOUG).getContract(\"carrierDB\");\n        require (carrierDb != 0x0);\n        result = CarrierDB(carrierDb).createCoi(policyNumber, carrier, owner, effectiveDate, expirationDate);\n        return result;\n    }\n\n    function getCoi(bytes32 policyNumber) public view\n        returns(address _carrier, address _owner, DataHelper.Stage _status, bytes32 _effectiveDate, bytes32 _expirationDate)\n    {\n        address manager = Doug(DOUG).getContract(\"coiManager\");\n        require (msg.sender == manager);\n        address carrierDb = Doug(DOUG).getContract(\"carrierDB\");\n        require (carrierDb != 0x0);\n\n        (_carrier, _owner, _status, _effectiveDate, _expirationDate) = CarrierDB(carrierDb).getCoi(policyNumber);\n        return (_carrier, _owner, _status, _effectiveDate, _expirationDate);\n    }\n\n    function isCOIActive(bytes32 policyNumber) public view returns (bool result) {\n        address manager = Doug(DOUG).getContract(\"coiManager\");\n        require (msg.sender == manager);\n        address carrierDb = Doug(DOUG).getContract(\"carrierDB\");\n        require (carrierDb != 0x0);\n        result = CarrierDB(carrierDb).isCOIActive(policyNumber);\n        return result;\n    }\n\n    function cancelCOI(bytes32 policyNumber) public returns (bool result) {\n        address manager = Doug(DOUG).getContract(\"coiManager\");\n        require (msg.sender == manager);\n        address carrierDb = Doug(DOUG).getContract(\"carrierDB\");\n        require (carrierDb != 0x0);\n        result = CarrierDB(carrierDb).cancelCOI(policyNumber);\n        return result;\n    }\n}\n",
  "sourcePath": "/Users/luismatasalvatierra/CW_REPOS/bcois-cw/contracts/Carrier.sol",
  "compiler": {
    "name": "solc",
    "version": "0.4.19+commit.c4cbbb05.Emscripten.clang"
  },
  "schemaVersion": "1.0.1",
  "updatedAt": "2018-03-06T16:44:23.317Z"
}