{
  "contractName": "CarrierDB",
  "abi": [
    {
      "constant": true,
      "inputs": [
        {
          "name": "",
          "type": "bytes32"
        }
      ],
      "name": "cois",
      "outputs": [
        {
          "name": "carrier",
          "type": "address"
        },
        {
          "name": "owner",
          "type": "address"
        },
        {
          "name": "status",
          "type": "uint8"
        },
        {
          "name": "effectiveDate",
          "type": "bytes32"
        },
        {
          "name": "expirationDate",
          "type": "bytes32"
        }
      ],
      "payable": false,
      "stateMutability": "view",
      "type": "function"
    },
    {
      "constant": false,
      "inputs": [
        {
          "name": "dougAddress",
          "type": "address"
        }
      ],
      "name": "setDougAddress",
      "outputs": [
        {
          "name": "",
          "type": "bool"
        }
      ],
      "payable": false,
      "stateMutability": "nonpayable",
      "type": "function"
    },
    {
      "constant": true,
      "inputs": [],
      "name": "getDougAddress",
      "outputs": [
        {
          "name": "",
          "type": "address"
        }
      ],
      "payable": false,
      "stateMutability": "view",
      "type": "function"
    },
    {
      "constant": false,
      "inputs": [],
      "name": "remove",
      "outputs": [],
      "payable": false,
      "stateMutability": "nonpayable",
      "type": "function"
    },
    {
      "constant": false,
      "inputs": [
        {
          "name": "policyNumber",
          "type": "bytes32"
        },
        {
          "name": "_carrier",
          "type": "address"
        },
        {
          "name": "_owner",
          "type": "address"
        },
        {
          "name": "_effectiveDate",
          "type": "bytes32"
        },
        {
          "name": "_expirationDate",
          "type": "bytes32"
        }
      ],
      "name": "createCoi",
      "outputs": [
        {
          "name": "result",
          "type": "bool"
        }
      ],
      "payable": false,
      "stateMutability": "nonpayable",
      "type": "function"
    },
    {
      "constant": true,
      "inputs": [
        {
          "name": "policyNumber",
          "type": "bytes32"
        }
      ],
      "name": "getCoi",
      "outputs": [
        {
          "name": "",
          "type": "address"
        },
        {
          "name": "",
          "type": "address"
        },
        {
          "name": "",
          "type": "uint8"
        },
        {
          "name": "",
          "type": "bytes32"
        },
        {
          "name": "",
          "type": "bytes32"
        }
      ],
      "payable": false,
      "stateMutability": "view",
      "type": "function"
    },
    {
      "constant": true,
      "inputs": [
        {
          "name": "policyNumber",
          "type": "bytes32"
        }
      ],
      "name": "isCOIActive",
      "outputs": [
        {
          "name": "result",
          "type": "bool"
        }
      ],
      "payable": false,
      "stateMutability": "view",
      "type": "function"
    },
    {
      "constant": false,
      "inputs": [
        {
          "name": "policyNumber",
          "type": "bytes32"
        }
      ],
      "name": "cancelCOI",
      "outputs": [
        {
          "name": "result",
          "type": "bool"
        }
      ],
      "payable": false,
      "stateMutability": "nonpayable",
      "type": "function"
    }
  ],
  "bytecode": "0x6060604052341561000f57600080fd5b610e8f8061001e6000396000f30060606040526004361061008e576000357c0100000000000000000000000000000000000000000000000000000000900463ffffffff168063052bcd74146100935780631875f74b1461016057806380e2653e1461019f57806381352c11146101f0578063921ae01d14610287578063a7f43779146102dc578063b003c753146102f1578063ba24919214610330575b600080fd5b341561009e57600080fd5b6100b86004808035600019169060200190919050506103fd565b604051808673ffffffffffffffffffffffffffffffffffffffff1673ffffffffffffffffffffffffffffffffffffffff1681526020018573ffffffffffffffffffffffffffffffffffffffff1673ffffffffffffffffffffffffffffffffffffffff16815260200184600281111561012c57fe5b60ff168152602001836000191660001916815260200182600019166000191681526020019550505050505060405180910390f35b341561016b57600080fd5b610185600480803560001916906020019091905050610480565b604051808215151515815260200191505060405180910390f35b34156101aa57600080fd5b6101d6600480803573ffffffffffffffffffffffffffffffffffffffff169060200190919050506105db565b604051808215151515815260200191505060405180910390f35b34156101fb57600080fd5b61026d60048080356000191690602001909190803573ffffffffffffffffffffffffffffffffffffffff1690602001909190803573ffffffffffffffffffffffffffffffffffffffff1690602001909190803560001916906020019091908035600019169060200190919050506106c9565b604051808215151515815260200191505060405180910390f35b341561029257600080fd5b61029a610958565b604051808273ffffffffffffffffffffffffffffffffffffffff1673ffffffffffffffffffffffffffffffffffffffff16815260200191505060405180910390f35b34156102e757600080fd5b6102ef610981565b005b34156102fc57600080fd5b610316600480803560001916906020019091905050610a12565b604051808215151515815260200191505060405180910390f35b341561033b57600080fd5b610355600480803560001916906020019091905050610b82565b604051808673ffffffffffffffffffffffffffffffffffffffff1673ffffffffffffffffffffffffffffffffffffffff1681526020018573ffffffffffffffffffffffffffffffffffffffff1673ffffffffffffffffffffffffffffffffffffffff1681526020018460028111156103c957fe5b60ff168152602001836000191660001916815260200182600019166000191681526020019550505050505060405180910390f35b60016020528060005260406000206000915090508060000160009054906101000a900473ffffffffffffffffffffffffffffffffffffffff16908060010160009054906101000a900473ffffffffffffffffffffffffffffffffffffffff16908060010160149054906101000a900460ff16908060020154908060030154905085565b6000806000809054906101000a900473ffffffffffffffffffffffffffffffffffffffff1673ffffffffffffffffffffffffffffffffffffffff1663e16c7d986000604051602001526040518163ffffffff167c010000000000000000000000000000000000000000000000000000000002815260040180807f63617272696572000000000000000000000000000000000000000000000000008152506020019050602060405180830381600087803b151561053b57600080fd5b6102c65a03f1151561054c57600080fd5b5050506040518051905090508073ffffffffffffffffffffffffffffffffffffffff163373ffffffffffffffffffffffffffffffffffffffff1614151561059257600080fd5b6001806000856000191660001916815260200190815260200160002060010160146101000a81548160ff021916908360028111156105cc57fe5b02179055506001915050919050565b6000806000809054906101000a900473ffffffffffffffffffffffffffffffffffffffff1673ffffffffffffffffffffffffffffffffffffffff161415801561067157506000809054906101000a900473ffffffffffffffffffffffffffffffffffffffff1673ffffffffffffffffffffffffffffffffffffffff163373ffffffffffffffffffffffffffffffffffffffff1614155b1561067f57600090506106c4565b816000806101000a81548173ffffffffffffffffffffffffffffffffffffffff021916908373ffffffffffffffffffffffffffffffffffffffff160217905550600190505b919050565b6000806106d4610df6565b60008060009054906101000a900473ffffffffffffffffffffffffffffffffffffffff1673ffffffffffffffffffffffffffffffffffffffff1663e16c7d986000604051602001526040518163ffffffff167c010000000000000000000000000000000000000000000000000000000002815260040180807f63617272696572000000000000000000000000000000000000000000000000008152506020019050602060405180830381600087803b151561078e57600080fd5b6102c65a03f1151561079f57600080fd5b5050506040518051905092508273ffffffffffffffffffffffffffffffffffffffff163373ffffffffffffffffffffffffffffffffffffffff161415156107e557600080fd5b6000905060a0604051908101604052808973ffffffffffffffffffffffffffffffffffffffff1681526020018873ffffffffffffffffffffffffffffffffffffffff16815260200182600281111561083957fe5b8152602001876000191681526020018660001916815250915081600160008b6000191660001916815260200190815260200160002060008201518160000160006101000a81548173ffffffffffffffffffffffffffffffffffffffff021916908373ffffffffffffffffffffffffffffffffffffffff16021790555060208201518160010160006101000a81548173ffffffffffffffffffffffffffffffffffffffff021916908373ffffffffffffffffffffffffffffffffffffffff16021790555060408201518160010160146101000a81548160ff0219169083600281111561092057fe5b021790555060608201518160020190600019169055608082015181600301906000191690559050506001935050505095945050505050565b60008060009054906101000a900473ffffffffffffffffffffffffffffffffffffffff16905090565b6000809054906101000a900473ffffffffffffffffffffffffffffffffffffffff1673ffffffffffffffffffffffffffffffffffffffff163373ffffffffffffffffffffffffffffffffffffffff161415610a10576000809054906101000a900473ffffffffffffffffffffffffffffffffffffffff1673ffffffffffffffffffffffffffffffffffffffff16ff5b565b6000806000809054906101000a900473ffffffffffffffffffffffffffffffffffffffff1673ffffffffffffffffffffffffffffffffffffffff1663e16c7d986000604051602001526040518163ffffffff167c010000000000000000000000000000000000000000000000000000000002815260040180807f63617272696572000000000000000000000000000000000000000000000000008152506020019050602060405180830381600087803b1515610acd57600080fd5b6102c65a03f11515610ade57600080fd5b5050506040518051905090508073ffffffffffffffffffffffffffffffffffffffff163373ffffffffffffffffffffffffffffffffffffffff16141515610b2457600080fd5b60006002811115610b3157fe5b60016000856000191660001916815260200190815260200160002060010160149054906101000a900460ff166002811115610b6857fe5b1415610b775760019150610b7c565b600091505b50919050565b600080600080600080610b93610df6565b6000809054906101000a900473ffffffffffffffffffffffffffffffffffffffff1673ffffffffffffffffffffffffffffffffffffffff1663e16c7d986000604051602001526040518163ffffffff167c010000000000000000000000000000000000000000000000000000000002815260040180807f63617272696572000000000000000000000000000000000000000000000000008152506020019050602060405180830381600087803b1515610c4b57600080fd5b6102c65a03f11515610c5c57600080fd5b5050506040518051905091508173ffffffffffffffffffffffffffffffffffffffff163373ffffffffffffffffffffffffffffffffffffffff16141515610ca257600080fd5b60016000896000191660001916815260200190815260200160002060a060405190810160405290816000820160009054906101000a900473ffffffffffffffffffffffffffffffffffffffff1673ffffffffffffffffffffffffffffffffffffffff1673ffffffffffffffffffffffffffffffffffffffff1681526020016001820160009054906101000a900473ffffffffffffffffffffffffffffffffffffffff1673ffffffffffffffffffffffffffffffffffffffff1673ffffffffffffffffffffffffffffffffffffffff1681526020016001820160149054906101000a900460ff166002811115610d9357fe5b6002811115610d9e57fe5b8152602001600282015460001916600019168152602001600382015460001916600019168152505090508060000151816020015182604001518360600151846080015196509650965096509650505091939590929450565b60a060405190810160405280600073ffffffffffffffffffffffffffffffffffffffff168152602001600073ffffffffffffffffffffffffffffffffffffffff16815260200160006002811115610e4957fe5b8152602001600080191681526020016000801916815250905600a165627a7a723058207bdf9a7af19e8061f92a8a0bcf9ee2ed20f9f293c1ba01ac78e2bb0d5df187070029",
  "source": "pragma solidity ^0.4.4;\nimport \"./DougEnabled.sol\";\nimport \"./Doug.sol\";\nimport \"./DataHelper.sol\";\n\ncontract CarrierDB is DougEnabled{\n    struct CoI {\n        address carrier;\n        address owner;\n        DataHelper.Stage status;\n        bytes32 effectiveDate;\n        bytes32 expirationDate;\n    }\n\n    mapping (bytes32 => CoI) public cois;\n\n    function createCoi(\n        bytes32 policyNumber,\n        address _carrier,\n        address _owner,\n        bytes32 _effectiveDate,\n        bytes32 _expirationDate\n    )\n        public returns (bool result)\n    {\n        address name_carrier = Doug(DOUG).getContract(\"carrier\");\n        require (msg.sender == name_carrier);\n        CoI memory coi;\n        DataHelper.Stage _status = DataHelper.Stage.Active;\n        coi = CoI(_carrier, _owner, _status, _effectiveDate, _expirationDate);\n        cois[policyNumber] = coi;\n        return true;\n    }\n\n    function getCoi(bytes32 policyNumber) public view\n        returns(address, address, DataHelper.Stage, bytes32, bytes32)\n    {\n        address name_carrier = Doug(DOUG).getContract(\"carrier\");\n        require (msg.sender == name_carrier);\n        CoI memory coi;\n        coi = cois[policyNumber];\n        return (coi.carrier, coi.owner, coi.status, coi.effectiveDate, coi.expirationDate);\n    }\n\n    function isCOIActive(bytes32 policyNumber) public view returns (bool result) {\n        address carrier = Doug(DOUG).getContract(\"carrier\");\n        require (msg.sender == carrier);\n        if (cois[policyNumber].status == DataHelper.Stage.Active) {\n          return true;\n        }\n        return false;\n    }\n\n    function cancelCOI(bytes32 policyNumber) public returns (bool result) {\n        address carrier = Doug(DOUG).getContract(\"carrier\");\n        require (msg.sender == carrier);\n        cois[policyNumber].status = DataHelper.Stage.Cancelled;\n        return true;\n    }\n}\n",
  "sourcePath": "/Users/luismatasalvatierra/CW_REPOS/bcois-cw/contracts/CarrierDB.sol",
  "compiler": {
    "name": "solc",
    "version": "0.4.19+commit.c4cbbb05.Emscripten.clang"
  },
  "schemaVersion": "1.0.1",
  "updatedAt": "2018-03-06T16:44:23.322Z"
}