{
  "contractName": "Carrier",
  "abi": [
    {
      "constant": false,
      "inputs": [
        {
          "name": "dougAddress",
          "type": "address"
        }
      ],
      "name": "setDougAddress",
      "outputs": [
        {
          "name": "",
          "type": "bool"
        }
      ],
      "payable": false,
      "stateMutability": "nonpayable",
      "type": "function"
    },
    {
      "constant": true,
      "inputs": [],
      "name": "getDougAddress",
      "outputs": [
        {
          "name": "",
          "type": "address"
        }
      ],
      "payable": false,
      "stateMutability": "view",
      "type": "function"
    },
    {
      "constant": false,
      "inputs": [],
      "name": "remove",
      "outputs": [],
      "payable": false,
      "stateMutability": "nonpayable",
      "type": "function"
    },
    {
      "constant": false,
      "inputs": [
        {
          "name": "policyNumber",
          "type": "bytes32"
        },
        {
          "name": "carrier",
          "type": "address"
        },
        {
          "name": "effectiveDate",
          "type": "bytes32"
        },
        {
          "name": "expirationDate",
          "type": "bytes32"
        }
      ],
      "name": "createCoi",
      "outputs": [
        {
          "name": "result",
          "type": "bool"
        }
      ],
      "payable": false,
      "stateMutability": "nonpayable",
      "type": "function"
    },
    {
      "constant": true,
      "inputs": [
        {
          "name": "policyNumber",
          "type": "bytes32"
        }
      ],
      "name": "getCoi",
      "outputs": [
        {
          "name": "",
          "type": "address"
        },
        {
          "name": "",
          "type": "uint8"
        },
        {
          "name": "",
          "type": "bytes32"
        },
        {
          "name": "",
          "type": "bytes32"
        }
      ],
      "payable": false,
      "stateMutability": "view",
      "type": "function"
    },
    {
      "constant": true,
      "inputs": [
        {
          "name": "policyNumber",
          "type": "bytes32"
        }
      ],
      "name": "isCOIActive",
      "outputs": [
        {
          "name": "result",
          "type": "bool"
        }
      ],
      "payable": false,
      "stateMutability": "view",
      "type": "function"
    },
    {
      "constant": false,
      "inputs": [
        {
          "name": "policyNumber",
          "type": "bytes32"
        }
      ],
      "name": "cancelCOI",
      "outputs": [
        {
          "name": "result",
          "type": "bool"
        }
      ],
      "payable": false,
      "stateMutability": "nonpayable",
      "type": "function"
    }
  ],
  "bytecode": "0x6060604052341561000f57600080fd5b6110178061001e6000396000f300606060405260043610610083576000357c0100000000000000000000000000000000000000000000000000000000900463ffffffff1680631875f74b1461008857806339e115da146100c757806380e2653e1461013f578063921ae01d14610190578063a7f43779146101e5578063b003c753146101fa578063ba24919214610239575b600080fd5b341561009357600080fd5b6100ad6004808035600019169060200190919050506102d3565b604051808215151515815260200191505060405180910390f35b34156100d257600080fd5b61012560048080356000191690602001909190803573ffffffffffffffffffffffffffffffffffffffff16906020019091908035600019169060200190919080356000191690602001909190505061058f565b604051808215151515815260200191505060405180910390f35b341561014a57600080fd5b610176600480803573ffffffffffffffffffffffffffffffffffffffff169060200190919050506108a2565b604051808215151515815260200191505060405180910390f35b341561019b57600080fd5b6101a3610990565b604051808273ffffffffffffffffffffffffffffffffffffffff1673ffffffffffffffffffffffffffffffffffffffff16815260200191505060405180910390f35b34156101f057600080fd5b6101f86109b9565b005b341561020557600080fd5b61021f600480803560001916906020019091905050610a4a565b604051808215151515815260200191505060405180910390f35b341561024457600080fd5b61025e600480803560001916906020019091905050610d06565b604051808573ffffffffffffffffffffffffffffffffffffffff1673ffffffffffffffffffffffffffffffffffffffff1681526020018460028111156102a057fe5b60ff1681526020018360001916600019168152602001826000191660001916815260200194505050505060405180910390f35b60008060008060009054906101000a900473ffffffffffffffffffffffffffffffffffffffff1673ffffffffffffffffffffffffffffffffffffffff1663e16c7d986000604051602001526040518163ffffffff167c010000000000000000000000000000000000000000000000000000000002815260040180807f636f694d616e61676572000000000000000000000000000000000000000000008152506020019050602060405180830381600087803b151561039057600080fd5b6102c65a03f115156103a157600080fd5b5050506040518051905091508173ffffffffffffffffffffffffffffffffffffffff163373ffffffffffffffffffffffffffffffffffffffff161415156103eb5760009250610588565b6000809054906101000a900473ffffffffffffffffffffffffffffffffffffffff1673ffffffffffffffffffffffffffffffffffffffff1663e16c7d986000604051602001526040518163ffffffff167c010000000000000000000000000000000000000000000000000000000002815260040180807f63617272696572444200000000000000000000000000000000000000000000008152506020019050602060405180830381600087803b15156104a357600080fd5b6102c65a03f115156104b457600080fd5b50505060405180519050905060008173ffffffffffffffffffffffffffffffffffffffff1614156104e85760009250610588565b8073ffffffffffffffffffffffffffffffffffffffff16631875f74b856000604051602001526040518263ffffffff167c0100000000000000000000000000000000000000000000000000000000028152600401808260001916600019168152602001915050602060405180830381600087803b151561056757600080fd5b6102c65a03f1151561057857600080fd5b5050506040518051905092508292505b5050919050565b60008060008060009054906101000a900473ffffffffffffffffffffffffffffffffffffffff1673ffffffffffffffffffffffffffffffffffffffff1663e16c7d986000604051602001526040518163ffffffff167c010000000000000000000000000000000000000000000000000000000002815260040180807f636f694d616e61676572000000000000000000000000000000000000000000008152506020019050602060405180830381600087803b151561064c57600080fd5b6102c65a03f1151561065d57600080fd5b5050506040518051905091508173ffffffffffffffffffffffffffffffffffffffff163373ffffffffffffffffffffffffffffffffffffffff161415156106a75760009250610898565b6000809054906101000a900473ffffffffffffffffffffffffffffffffffffffff1673ffffffffffffffffffffffffffffffffffffffff1663e16c7d986000604051602001526040518163ffffffff167c010000000000000000000000000000000000000000000000000000000002815260040180807f63617272696572444200000000000000000000000000000000000000000000008152506020019050602060405180830381600087803b151561075f57600080fd5b6102c65a03f1151561077057600080fd5b50505060405180519050905060008173ffffffffffffffffffffffffffffffffffffffff1614156107a45760009250610898565b8073ffffffffffffffffffffffffffffffffffffffff166339e115da888888886000604051602001526040518563ffffffff167c01000000000000000000000000000000000000000000000000000000000281526004018085600019166000191681526020018473ffffffffffffffffffffffffffffffffffffffff1673ffffffffffffffffffffffffffffffffffffffff16815260200183600019166000191681526020018260001916600019168152602001945050505050602060405180830381600087803b151561087757600080fd5b6102c65a03f1151561088857600080fd5b5050506040518051905092508292505b5050949350505050565b6000806000809054906101000a900473ffffffffffffffffffffffffffffffffffffffff1673ffffffffffffffffffffffffffffffffffffffff161415801561093857506000809054906101000a900473ffffffffffffffffffffffffffffffffffffffff1673ffffffffffffffffffffffffffffffffffffffff163373ffffffffffffffffffffffffffffffffffffffff1614155b15610946576000905061098b565b816000806101000a81548173ffffffffffffffffffffffffffffffffffffffff021916908373ffffffffffffffffffffffffffffffffffffffff160217905550600190505b919050565b60008060009054906101000a900473ffffffffffffffffffffffffffffffffffffffff16905090565b6000809054906101000a900473ffffffffffffffffffffffffffffffffffffffff1673ffffffffffffffffffffffffffffffffffffffff163373ffffffffffffffffffffffffffffffffffffffff161415610a48576000809054906101000a900473ffffffffffffffffffffffffffffffffffffffff1673ffffffffffffffffffffffffffffffffffffffff16ff5b565b60008060008060009054906101000a900473ffffffffffffffffffffffffffffffffffffffff1673ffffffffffffffffffffffffffffffffffffffff1663e16c7d986000604051602001526040518163ffffffff167c010000000000000000000000000000000000000000000000000000000002815260040180807f636f694d616e61676572000000000000000000000000000000000000000000008152506020019050602060405180830381600087803b1515610b0757600080fd5b6102c65a03f11515610b1857600080fd5b5050506040518051905091508173ffffffffffffffffffffffffffffffffffffffff163373ffffffffffffffffffffffffffffffffffffffff16141515610b625760009250610cff565b6000809054906101000a900473ffffffffffffffffffffffffffffffffffffffff1673ffffffffffffffffffffffffffffffffffffffff1663e16c7d986000604051602001526040518163ffffffff167c010000000000000000000000000000000000000000000000000000000002815260040180807f63617272696572444200000000000000000000000000000000000000000000008152506020019050602060405180830381600087803b1515610c1a57600080fd5b6102c65a03f11515610c2b57600080fd5b50505060405180519050905060008173ffffffffffffffffffffffffffffffffffffffff161415610c5f5760009250610cff565b8073ffffffffffffffffffffffffffffffffffffffff1663b003c753856000604051602001526040518263ffffffff167c0100000000000000000000000000000000000000000000000000000000028152600401808260001916600019168152602001915050602060405180830381600087803b1515610cde57600080fd5b6102c65a03f11515610cef57600080fd5b5050506040518051905092508292505b5050919050565b6000806000806000806000806000806000809054906101000a900473ffffffffffffffffffffffffffffffffffffffff1673ffffffffffffffffffffffffffffffffffffffff1663e16c7d986000604051602001526040518163ffffffff167c010000000000000000000000000000000000000000000000000000000002815260040180807f636f694d616e61676572000000000000000000000000000000000000000000008152506020019050602060405180830381600087803b1515610dcd57600080fd5b6102c65a03f11515610dde57600080fd5b5050506040518051905095508573ffffffffffffffffffffffffffffffffffffffff163373ffffffffffffffffffffffffffffffffffffffff16141515610e2457610fde565b6000809054906101000a900473ffffffffffffffffffffffffffffffffffffffff1673ffffffffffffffffffffffffffffffffffffffff1663e16c7d986000604051602001526040518163ffffffff167c010000000000000000000000000000000000000000000000000000000002815260040180807f63617272696572444200000000000000000000000000000000000000000000008152506020019050602060405180830381600087803b1515610edc57600080fd5b6102c65a03f11515610eed57600080fd5b50505060405180519050945060008573ffffffffffffffffffffffffffffffffffffffff161415610f1d57610fde565b8473ffffffffffffffffffffffffffffffffffffffff1663ba2491928c6000604051608001526040518263ffffffff167c0100000000000000000000000000000000000000000000000000000000028152600401808260001916600019168152602001915050608060405180830381600087803b1515610f9c57600080fd5b6102c65a03f11515610fad57600080fd5b5050506040518051906020018051906020018051906020018051905093509350935093508383838399509950995099505b50505050505091935091935600a165627a7a72305820a148703c44d58493d48eeb08d84a7ddbb8ee9d75ae4839ff8fe740a1b6a19a120029",
  "source": "pragma solidity ^0.4.4;\nimport \"./DougEnabled.sol\";\nimport \"./Doug.sol\";\nimport \"./DataHelper.sol\";\nimport \"./CarrierDB.sol\";\n\ncontract Carrier is DougEnabled {\n    function createCoi(\n        bytes32 policyNumber,\n        address carrier,\n        bytes32 effectiveDate,\n        bytes32 expirationDate\n    )\n        public returns (bool result)\n    {\n        address manager = Doug(DOUG).getContract(\"coiManager\");\n        if (msg.sender != manager)\n            return false;\n        address carrierDb = Doug(DOUG).getContract(\"carrierDB\");\n        if (carrierDb == 0x0 )\n          return false;\n        result = CarrierDB(carrierDb).createCoi(policyNumber, carrier, effectiveDate, expirationDate);\n        return result;\n    }\n\n    function getCoi(bytes32 policyNumber) public view\n        returns(address, DataHelper.Stage, bytes32, bytes32)\n    {\n        address manager = Doug(DOUG).getContract(\"coiManager\");\n        if (msg.sender != manager)\n            return;\n        address carrierDb = Doug(DOUG).getContract(\"carrierDB\");\n        if (carrierDb == 0x0 )\n          return;\n        var (_carrier, _status, _effectiveDate, _expirationDate) = CarrierDB(carrierDb).getCoi(policyNumber);\n        return (_carrier, _status, _effectiveDate, _expirationDate);\n    }\n\n    function isCOIActive(bytes32 policyNumber) public view returns (bool result) {\n        address manager = Doug(DOUG).getContract(\"coiManager\");\n        if (msg.sender != manager)\n            return false;\n        address carrierDb = Doug(DOUG).getContract(\"carrierDB\");\n        if (carrierDb == 0x0 )\n          return false;\n        result = CarrierDB(carrierDb).isCOIActive(policyNumber);\n        return result;\n    }\n\n    function cancelCOI(bytes32 policyNumber) public returns (bool result) {\n      address manager = Doug(DOUG).getContract(\"coiManager\");\n      if (msg.sender != manager)\n          return false;\n      address carrierDb = Doug(DOUG).getContract(\"carrierDB\");\n      if (carrierDb == 0x0 )\n        return false;\n      result = CarrierDB(carrierDb).cancelCOI(policyNumber);\n      return result;\n    }\n}\n",
  "sourcePath": "/Users/luismatasalvatierra/CW_REPOS/bcois-cw/contracts/Carrier.sol",
  "compiler": {
    "name": "solc",
    "version": "0.4.19+commit.c4cbbb05.Emscripten.clang"
  },
  "schemaVersion": "1.0.1",
  "updatedAt": "2018-02-27T14:40:09.277Z"
}