{
  "contractName": "CarrierDB",
  "abi": [
    {
      "constant": true,
      "inputs": [
        {
          "name": "",
          "type": "bytes32"
        }
      ],
      "name": "cois",
      "outputs": [
        {
          "name": "carrier",
          "type": "address"
        },
        {
          "name": "status",
          "type": "uint8"
        },
        {
          "name": "effectiveDate",
          "type": "bytes32"
        },
        {
          "name": "expirationDate",
          "type": "bytes32"
        }
      ],
      "payable": false,
      "stateMutability": "view",
      "type": "function"
    },
    {
      "constant": false,
      "inputs": [
        {
          "name": "dougAddress",
          "type": "address"
        }
      ],
      "name": "setDougAddress",
      "outputs": [
        {
          "name": "",
          "type": "bool"
        }
      ],
      "payable": false,
      "stateMutability": "nonpayable",
      "type": "function"
    },
    {
      "constant": false,
      "inputs": [],
      "name": "remove",
      "outputs": [],
      "payable": false,
      "stateMutability": "nonpayable",
      "type": "function"
    },
    {
      "constant": false,
      "inputs": [
        {
          "name": "policyNumber",
          "type": "bytes32"
        },
        {
          "name": "_carrier",
          "type": "address"
        },
        {
          "name": "_effectiveDate",
          "type": "bytes32"
        },
        {
          "name": "_expirationDate",
          "type": "bytes32"
        }
      ],
      "name": "createCoi",
      "outputs": [
        {
          "name": "result",
          "type": "bool"
        }
      ],
      "payable": false,
      "stateMutability": "nonpayable",
      "type": "function"
    },
    {
      "constant": true,
      "inputs": [
        {
          "name": "policyNumber",
          "type": "bytes32"
        }
      ],
      "name": "isCOIActive",
      "outputs": [
        {
          "name": "result",
          "type": "bool"
        }
      ],
      "payable": false,
      "stateMutability": "view",
      "type": "function"
    },
    {
      "constant": false,
      "inputs": [
        {
          "name": "policyNumber",
          "type": "bytes32"
        }
      ],
      "name": "cancelCOI",
      "outputs": [
        {
          "name": "result",
          "type": "bool"
        }
      ],
      "payable": false,
      "stateMutability": "nonpayable",
      "type": "function"
    }
  ],
  "bytecode": "0x6060604052341561000f57600080fd5b6109cf8061001e6000396000f300606060405260043610610078576000357c0100000000000000000000000000000000000000000000000000000000900463ffffffff168063052bcd741461007d5780631875f74b1461011757806339e115da1461015657806380e2653e146101ce578063a7f437791461021f578063b003c75314610234575b600080fd5b341561008857600080fd5b6100a2600480803560001916906020019091905050610273565b604051808573ffffffffffffffffffffffffffffffffffffffff1673ffffffffffffffffffffffffffffffffffffffff1681526020018460028111156100e457fe5b60ff1681526020018360001916600019168152602001826000191660001916815260200194505050505060405180910390f35b341561012257600080fd5b61013c6004808035600019169060200190919050506102d0565b604051808215151515815260200191505060405180910390f35b341561016157600080fd5b6101b460048080356000191690602001909190803573ffffffffffffffffffffffffffffffffffffffff169060200190919080356000191690602001909190803560001916906020019091905050610430565b604051808215151515815260200191505060405180910390f35b34156101d957600080fd5b610205600480803573ffffffffffffffffffffffffffffffffffffffff16906020019091905050610660565b604051808215151515815260200191505060405180910390f35b341561022a57600080fd5b61023261074e565b005b341561023f57600080fd5b6102596004808035600019169060200190919050506107df565b604051808215151515815260200191505060405180910390f35b60016020528060005260406000206000915090508060000160009054906101000a900473ffffffffffffffffffffffffffffffffffffffff16908060000160149054906101000a900460ff16908060010154908060020154905084565b6000806000809054906101000a900473ffffffffffffffffffffffffffffffffffffffff1673ffffffffffffffffffffffffffffffffffffffff1663e16c7d986000604051602001526040518163ffffffff167c010000000000000000000000000000000000000000000000000000000002815260040180807f63617272696572000000000000000000000000000000000000000000000000008152506020019050602060405180830381600087803b151561038b57600080fd5b6102c65a03f1151561039c57600080fd5b5050506040518051905090508073ffffffffffffffffffffffffffffffffffffffff163373ffffffffffffffffffffffffffffffffffffffff161415156103e6576000915061042a565b6001806000856000191660001916815260200190815260200160002060000160146101000a81548160ff0219169083600281111561042057fe5b0217905550600191505b50919050565b60008061043b610953565b60008060009054906101000a900473ffffffffffffffffffffffffffffffffffffffff1673ffffffffffffffffffffffffffffffffffffffff1663e16c7d986000604051602001526040518163ffffffff167c010000000000000000000000000000000000000000000000000000000002815260040180807f63617272696572000000000000000000000000000000000000000000000000008152506020019050602060405180830381600087803b15156104f557600080fd5b6102c65a03f1151561050657600080fd5b5050506040518051905092508273ffffffffffffffffffffffffffffffffffffffff163373ffffffffffffffffffffffffffffffffffffffff161415156105505760009350610655565b600090506080604051908101604052808873ffffffffffffffffffffffffffffffffffffffff16815260200182600281111561058857fe5b8152602001876000191681526020018660001916815250915081600160008a6000191660001916815260200190815260200160002060008201518160000160006101000a81548173ffffffffffffffffffffffffffffffffffffffff021916908373ffffffffffffffffffffffffffffffffffffffff16021790555060208201518160000160146101000a81548160ff0219169083600281111561062857fe5b02179055506040820151816001019060001916905560608201518160020190600019169055905050600193505b505050949350505050565b6000806000809054906101000a900473ffffffffffffffffffffffffffffffffffffffff1673ffffffffffffffffffffffffffffffffffffffff16141580156106f657506000809054906101000a900473ffffffffffffffffffffffffffffffffffffffff1673ffffffffffffffffffffffffffffffffffffffff163373ffffffffffffffffffffffffffffffffffffffff1614155b156107045760009050610749565b816000806101000a81548173ffffffffffffffffffffffffffffffffffffffff021916908373ffffffffffffffffffffffffffffffffffffffff160217905550600190505b919050565b6000809054906101000a900473ffffffffffffffffffffffffffffffffffffffff1673ffffffffffffffffffffffffffffffffffffffff163373ffffffffffffffffffffffffffffffffffffffff1614156107dd576000809054906101000a900473ffffffffffffffffffffffffffffffffffffffff1673ffffffffffffffffffffffffffffffffffffffff16ff5b565b6000806000809054906101000a900473ffffffffffffffffffffffffffffffffffffffff1673ffffffffffffffffffffffffffffffffffffffff1663e16c7d986000604051602001526040518163ffffffff167c010000000000000000000000000000000000000000000000000000000002815260040180807f63617272696572000000000000000000000000000000000000000000000000008152506020019050602060405180830381600087803b151561089a57600080fd5b6102c65a03f115156108ab57600080fd5b5050506040518051905090508073ffffffffffffffffffffffffffffffffffffffff163373ffffffffffffffffffffffffffffffffffffffff161415156108f5576000915061094d565b6000600281111561090257fe5b60016000856000191660001916815260200190815260200160002060000160149054906101000a900460ff16600281111561093957fe5b1415610948576001915061094d565b600091505b50919050565b608060405190810160405280600073ffffffffffffffffffffffffffffffffffffffff1681526020016000600281111561098957fe5b8152602001600080191681526020016000801916815250905600a165627a7a7230582056bd7e5194632c320d0ab16a8b301f944ffb985787f59693a09507f7cd3c583a0029",
  "source": "pragma solidity ^0.4.4;\nimport \"./DougEnabled.sol\";\nimport \"./Doug.sol\";\nimport \"./DataHelper.sol\";\n\ncontract CarrierDB is DougEnabled{\n    struct CoI {\n        address carrier;\n        DataHelper.Stage status;\n        bytes32 effectiveDate;\n        bytes32 expirationDate;\n    }\n\n    mapping (bytes32 => CoI) public cois;\n\n    function createCoi(\n        bytes32 policyNumber,\n        address _carrier,\n        bytes32 _effectiveDate,\n        bytes32 _expirationDate\n    )\n        public returns (bool result)\n    {\n        address name_carrier = Doug(DOUG).getContract(\"carrier\");\n        if (msg.sender != name_carrier) {\n            return false;\n        }\n        CoI memory coi;\n        DataHelper.Stage _status = DataHelper.Stage.Active;\n        coi = CoI(_carrier, _status, _effectiveDate, _expirationDate);\n        cois[policyNumber] = coi;\n        return true;\n    }\n\n    function isCOIActive(bytes32 policyNumber) public view returns (bool result) {\n        address carrier = Doug(DOUG).getContract(\"carrier\");\n        if (msg.sender != carrier)\n            return false;\n        if (cois[policyNumber].status == DataHelper.Stage.Active) {\n          return true;\n        }\n        return false;\n    }\n\n    function cancelCOI(bytes32 policyNumber) public returns (bool result) {\n      address carrier = Doug(DOUG).getContract(\"carrier\");\n      if (msg.sender != carrier)\n          return false;\n      cois[policyNumber].status = DataHelper.Stage.Cancelled;\n      return true;\n    }\n}\n",
  "sourcePath": "/Users/luismatasalvatierra/CW_REPOS/bcois-cw/contracts/CarrierDB.sol",
  "compiler": {
    "name": "solc",
    "version": "0.4.19+commit.c4cbbb05.Emscripten.clang"
  },
  "schemaVersion": "1.0.1",
  "updatedAt": "2018-02-24T22:01:04.784Z"
}