{
  "contractName": "CarrierDB",
  "abi": [
    {
      "constant": true,
      "inputs": [
        {
          "name": "",
          "type": "bytes32"
        }
      ],
      "name": "cois",
      "outputs": [
        {
          "name": "carrier",
          "type": "address"
        },
        {
          "name": "status",
          "type": "uint8"
        },
        {
          "name": "effectiveDate",
          "type": "bytes32"
        },
        {
          "name": "expirationDate",
          "type": "bytes32"
        }
      ],
      "payable": false,
      "stateMutability": "view",
      "type": "function"
    },
    {
      "constant": false,
      "inputs": [
        {
          "name": "dougAddress",
          "type": "address"
        }
      ],
      "name": "setDougAddress",
      "outputs": [
        {
          "name": "",
          "type": "bool"
        }
      ],
      "payable": false,
      "stateMutability": "nonpayable",
      "type": "function"
    },
    {
      "constant": true,
      "inputs": [],
      "name": "getDougAddress",
      "outputs": [
        {
          "name": "",
          "type": "address"
        }
      ],
      "payable": false,
      "stateMutability": "view",
      "type": "function"
    },
    {
      "constant": false,
      "inputs": [],
      "name": "remove",
      "outputs": [],
      "payable": false,
      "stateMutability": "nonpayable",
      "type": "function"
    },
    {
      "constant": false,
      "inputs": [
        {
          "name": "policyNumber",
          "type": "bytes32"
        },
        {
          "name": "_carrier",
          "type": "address"
        },
        {
          "name": "_effectiveDate",
          "type": "bytes32"
        },
        {
          "name": "_expirationDate",
          "type": "bytes32"
        }
      ],
      "name": "createCoi",
      "outputs": [
        {
          "name": "result",
          "type": "bool"
        }
      ],
      "payable": false,
      "stateMutability": "nonpayable",
      "type": "function"
    },
    {
      "constant": true,
      "inputs": [
        {
          "name": "policyNumber",
          "type": "bytes32"
        }
      ],
      "name": "getCoi",
      "outputs": [
        {
          "name": "",
          "type": "address"
        },
        {
          "name": "",
          "type": "uint8"
        },
        {
          "name": "",
          "type": "bytes32"
        },
        {
          "name": "",
          "type": "bytes32"
        }
      ],
      "payable": false,
      "stateMutability": "view",
      "type": "function"
    },
    {
      "constant": true,
      "inputs": [
        {
          "name": "policyNumber",
          "type": "bytes32"
        }
      ],
      "name": "isCOIActive",
      "outputs": [
        {
          "name": "result",
          "type": "bool"
        }
      ],
      "payable": false,
      "stateMutability": "view",
      "type": "function"
    },
    {
      "constant": false,
      "inputs": [
        {
          "name": "policyNumber",
          "type": "bytes32"
        }
      ],
      "name": "cancelCOI",
      "outputs": [
        {
          "name": "result",
          "type": "bool"
        }
      ],
      "payable": false,
      "stateMutability": "nonpayable",
      "type": "function"
    }
  ],
  "bytecode": "0x6060604052341561000f57600080fd5b610d128061001e6000396000f30060606040526004361061008e576000357c0100000000000000000000000000000000000000000000000000000000900463ffffffff168063052bcd74146100935780631875f74b1461012d57806339e115da1461016c57806380e2653e146101e4578063921ae01d14610235578063a7f437791461028a578063b003c7531461029f578063ba249192146102de575b600080fd5b341561009e57600080fd5b6100b8600480803560001916906020019091905050610378565b604051808573ffffffffffffffffffffffffffffffffffffffff1673ffffffffffffffffffffffffffffffffffffffff1681526020018460028111156100fa57fe5b60ff1681526020018360001916600019168152602001826000191660001916815260200194505050505060405180910390f35b341561013857600080fd5b6101526004808035600019169060200190919050506103d5565b604051808215151515815260200191505060405180910390f35b341561017757600080fd5b6101ca60048080356000191690602001909190803573ffffffffffffffffffffffffffffffffffffffff169060200190919080356000191690602001909190803560001916906020019091905050610535565b604051808215151515815260200191505060405180910390f35b34156101ef57600080fd5b61021b600480803573ffffffffffffffffffffffffffffffffffffffff16906020019091905050610765565b604051808215151515815260200191505060405180910390f35b341561024057600080fd5b610248610853565b604051808273ffffffffffffffffffffffffffffffffffffffff1673ffffffffffffffffffffffffffffffffffffffff16815260200191505060405180910390f35b341561029557600080fd5b61029d61087c565b005b34156102aa57600080fd5b6102c460048080356000191690602001909190505061090d565b604051808215151515815260200191505060405180910390f35b34156102e957600080fd5b610303600480803560001916906020019091905050610a81565b604051808573ffffffffffffffffffffffffffffffffffffffff1673ffffffffffffffffffffffffffffffffffffffff16815260200184600281111561034557fe5b60ff1681526020018360001916600019168152602001826000191660001916815260200194505050505060405180910390f35b60016020528060005260406000206000915090508060000160009054906101000a900473ffffffffffffffffffffffffffffffffffffffff16908060000160149054906101000a900460ff16908060010154908060020154905084565b6000806000809054906101000a900473ffffffffffffffffffffffffffffffffffffffff1673ffffffffffffffffffffffffffffffffffffffff1663e16c7d986000604051602001526040518163ffffffff167c010000000000000000000000000000000000000000000000000000000002815260040180807f63617272696572000000000000000000000000000000000000000000000000008152506020019050602060405180830381600087803b151561049057600080fd5b6102c65a03f115156104a157600080fd5b5050506040518051905090508073ffffffffffffffffffffffffffffffffffffffff163373ffffffffffffffffffffffffffffffffffffffff161415156104eb576000915061052f565b6001806000856000191660001916815260200190815260200160002060000160146101000a81548160ff0219169083600281111561052557fe5b0217905550600191505b50919050565b600080610540610c96565b60008060009054906101000a900473ffffffffffffffffffffffffffffffffffffffff1673ffffffffffffffffffffffffffffffffffffffff1663e16c7d986000604051602001526040518163ffffffff167c010000000000000000000000000000000000000000000000000000000002815260040180807f63617272696572000000000000000000000000000000000000000000000000008152506020019050602060405180830381600087803b15156105fa57600080fd5b6102c65a03f1151561060b57600080fd5b5050506040518051905092508273ffffffffffffffffffffffffffffffffffffffff163373ffffffffffffffffffffffffffffffffffffffff16141515610655576000935061075a565b600090506080604051908101604052808873ffffffffffffffffffffffffffffffffffffffff16815260200182600281111561068d57fe5b8152602001876000191681526020018660001916815250915081600160008a6000191660001916815260200190815260200160002060008201518160000160006101000a81548173ffffffffffffffffffffffffffffffffffffffff021916908373ffffffffffffffffffffffffffffffffffffffff16021790555060208201518160000160146101000a81548160ff0219169083600281111561072d57fe5b02179055506040820151816001019060001916905560608201518160020190600019169055905050600193505b505050949350505050565b6000806000809054906101000a900473ffffffffffffffffffffffffffffffffffffffff1673ffffffffffffffffffffffffffffffffffffffff16141580156107fb57506000809054906101000a900473ffffffffffffffffffffffffffffffffffffffff1673ffffffffffffffffffffffffffffffffffffffff163373ffffffffffffffffffffffffffffffffffffffff1614155b15610809576000905061084e565b816000806101000a81548173ffffffffffffffffffffffffffffffffffffffff021916908373ffffffffffffffffffffffffffffffffffffffff160217905550600190505b919050565b60008060009054906101000a900473ffffffffffffffffffffffffffffffffffffffff16905090565b6000809054906101000a900473ffffffffffffffffffffffffffffffffffffffff1673ffffffffffffffffffffffffffffffffffffffff163373ffffffffffffffffffffffffffffffffffffffff16141561090b576000809054906101000a900473ffffffffffffffffffffffffffffffffffffffff1673ffffffffffffffffffffffffffffffffffffffff16ff5b565b6000806000809054906101000a900473ffffffffffffffffffffffffffffffffffffffff1673ffffffffffffffffffffffffffffffffffffffff1663e16c7d986000604051602001526040518163ffffffff167c010000000000000000000000000000000000000000000000000000000002815260040180807f63617272696572000000000000000000000000000000000000000000000000008152506020019050602060405180830381600087803b15156109c857600080fd5b6102c65a03f115156109d957600080fd5b5050506040518051905090508073ffffffffffffffffffffffffffffffffffffffff163373ffffffffffffffffffffffffffffffffffffffff16141515610a235760009150610a7b565b60006002811115610a3057fe5b60016000856000191660001916815260200190815260200160002060000160149054906101000a900460ff166002811115610a6757fe5b1415610a765760019150610a7b565b600091505b50919050565b6000806000806000610a91610c96565b6000809054906101000a900473ffffffffffffffffffffffffffffffffffffffff1673ffffffffffffffffffffffffffffffffffffffff1663e16c7d986000604051602001526040518163ffffffff167c010000000000000000000000000000000000000000000000000000000002815260040180807f63617272696572000000000000000000000000000000000000000000000000008152506020019050602060405180830381600087803b1515610b4957600080fd5b6102c65a03f11515610b5a57600080fd5b5050506040518051905091508173ffffffffffffffffffffffffffffffffffffffff163373ffffffffffffffffffffffffffffffffffffffff16141515610ba057610c8d565b600160008860001916600019168152602001908152602001600020608060405190810160405290816000820160009054906101000a900473ffffffffffffffffffffffffffffffffffffffff1673ffffffffffffffffffffffffffffffffffffffff1673ffffffffffffffffffffffffffffffffffffffff1681526020016000820160149054906101000a900460ff166002811115610c3b57fe5b6002811115610c4657fe5b815260200160018201546000191660001916815260200160028201546000191660001916815250509050806000015181602001518260400151836060015195509550955095505b50509193509193565b608060405190810160405280600073ffffffffffffffffffffffffffffffffffffffff16815260200160006002811115610ccc57fe5b8152602001600080191681526020016000801916815250905600a165627a7a72305820d0b627feef94f80b62666972a07114a759f0ab041e4045f8a0e50fc4553991810029",
  "source": "pragma solidity ^0.4.4;\nimport \"./DougEnabled.sol\";\nimport \"./Doug.sol\";\nimport \"./DataHelper.sol\";\n\ncontract CarrierDB is DougEnabled{\n    struct CoI {\n        address carrier;\n        DataHelper.Stage status;\n        bytes32 effectiveDate;\n        bytes32 expirationDate;\n    }\n\n    mapping (bytes32 => CoI) public cois;\n\n    function createCoi(\n        bytes32 policyNumber,\n        address _carrier,\n        bytes32 _effectiveDate,\n        bytes32 _expirationDate\n    )\n        public returns (bool result)\n    {\n        address name_carrier = Doug(DOUG).getContract(\"carrier\");\n        if (msg.sender != name_carrier) {\n            return false;\n        }\n        CoI memory coi;\n        DataHelper.Stage _status = DataHelper.Stage.Active;\n        coi = CoI(_carrier, _status, _effectiveDate, _expirationDate);\n        cois[policyNumber] = coi;\n        return true;\n    }\n\n    function getCoi(bytes32 policyNumber) public view\n        returns(address, DataHelper.Stage, bytes32, bytes32)\n    {\n        address name_carrier = Doug(DOUG).getContract(\"carrier\");\n        if (msg.sender != name_carrier) {\n            return;\n        }\n        CoI memory coi;\n        coi = cois[policyNumber];\n        return (coi.carrier, coi.status, coi.effectiveDate, coi.expirationDate);\n    }\n\n    function isCOIActive(bytes32 policyNumber) public view returns (bool result) {\n        address carrier = Doug(DOUG).getContract(\"carrier\");\n        if (msg.sender != carrier)\n            return false;\n        if (cois[policyNumber].status == DataHelper.Stage.Active) {\n          return true;\n        }\n        return false;\n    }\n\n    function cancelCOI(bytes32 policyNumber) public returns (bool result) {\n      address carrier = Doug(DOUG).getContract(\"carrier\");\n      if (msg.sender != carrier)\n          return false;\n      cois[policyNumber].status = DataHelper.Stage.Cancelled;\n      return true;\n    }\n}\n",
  "sourcePath": "/Users/luismatasalvatierra/CW_REPOS/bcois-cw/contracts/CarrierDB.sol",
  "compiler": {
    "name": "solc",
    "version": "0.4.19+commit.c4cbbb05.Emscripten.clang"
  },
  "schemaVersion": "1.0.1",
  "updatedAt": "2018-02-27T14:40:09.275Z"
}