{
  "contractName": "Carrier",
  "abi": [
    {
      "constant": false,
      "inputs": [
        {
          "name": "dougAddress",
          "type": "address"
        }
      ],
      "name": "setDougAddress",
      "outputs": [
        {
          "name": "",
          "type": "bool"
        }
      ],
      "payable": false,
      "stateMutability": "nonpayable",
      "type": "function"
    },
    {
      "constant": false,
      "inputs": [],
      "name": "remove",
      "outputs": [],
      "payable": false,
      "stateMutability": "nonpayable",
      "type": "function"
    },
    {
      "constant": false,
      "inputs": [
        {
          "name": "policyNumber",
          "type": "bytes32"
        },
        {
          "name": "carrier",
          "type": "address"
        },
        {
          "name": "effectiveDate",
          "type": "bytes32"
        },
        {
          "name": "expirationDate",
          "type": "bytes32"
        }
      ],
      "name": "createCoi",
      "outputs": [
        {
          "name": "result",
          "type": "bool"
        }
      ],
      "payable": false,
      "stateMutability": "nonpayable",
      "type": "function"
    },
    {
      "constant": true,
      "inputs": [
        {
          "name": "policyNumber",
          "type": "bytes32"
        }
      ],
      "name": "isCOIActive",
      "outputs": [
        {
          "name": "result",
          "type": "bool"
        }
      ],
      "payable": false,
      "stateMutability": "view",
      "type": "function"
    },
    {
      "constant": false,
      "inputs": [
        {
          "name": "policyNumber",
          "type": "bytes32"
        }
      ],
      "name": "cancelCOI",
      "outputs": [
        {
          "name": "result",
          "type": "bool"
        }
      ],
      "payable": false,
      "stateMutability": "nonpayable",
      "type": "function"
    }
  ],
  "bytecode": "0x6060604052341561000f57600080fd5b610c048061001e6000396000f30060606040526004361061006d576000357c0100000000000000000000000000000000000000000000000000000000900463ffffffff1680631875f74b1461007257806339e115da146100b157806380e2653e14610129578063a7f437791461017a578063b003c7531461018f575b600080fd5b341561007d57600080fd5b6100976004808035600019169060200190919050506101ce565b604051808215151515815260200191505060405180910390f35b34156100bc57600080fd5b61010f60048080356000191690602001909190803573ffffffffffffffffffffffffffffffffffffffff16906020019091908035600019169060200190919080356000191690602001909190505061048a565b604051808215151515815260200191505060405180910390f35b341561013457600080fd5b610160600480803573ffffffffffffffffffffffffffffffffffffffff1690602001909190505061079d565b604051808215151515815260200191505060405180910390f35b341561018557600080fd5b61018d61088b565b005b341561019a57600080fd5b6101b460048080356000191690602001909190505061091c565b604051808215151515815260200191505060405180910390f35b60008060008060009054906101000a900473ffffffffffffffffffffffffffffffffffffffff1673ffffffffffffffffffffffffffffffffffffffff1663e16c7d986000604051602001526040518163ffffffff167c010000000000000000000000000000000000000000000000000000000002815260040180807f636f694d616e61676572000000000000000000000000000000000000000000008152506020019050602060405180830381600087803b151561028b57600080fd5b6102c65a03f1151561029c57600080fd5b5050506040518051905091508173ffffffffffffffffffffffffffffffffffffffff163373ffffffffffffffffffffffffffffffffffffffff161415156102e65760009250610483565b6000809054906101000a900473ffffffffffffffffffffffffffffffffffffffff1673ffffffffffffffffffffffffffffffffffffffff1663e16c7d986000604051602001526040518163ffffffff167c010000000000000000000000000000000000000000000000000000000002815260040180807f63617272696572444200000000000000000000000000000000000000000000008152506020019050602060405180830381600087803b151561039e57600080fd5b6102c65a03f115156103af57600080fd5b50505060405180519050905060008173ffffffffffffffffffffffffffffffffffffffff1614156103e35760009250610483565b8073ffffffffffffffffffffffffffffffffffffffff16631875f74b856000604051602001526040518263ffffffff167c0100000000000000000000000000000000000000000000000000000000028152600401808260001916600019168152602001915050602060405180830381600087803b151561046257600080fd5b6102c65a03f1151561047357600080fd5b5050506040518051905092508292505b5050919050565b60008060008060009054906101000a900473ffffffffffffffffffffffffffffffffffffffff1673ffffffffffffffffffffffffffffffffffffffff1663e16c7d986000604051602001526040518163ffffffff167c010000000000000000000000000000000000000000000000000000000002815260040180807f636f694d616e61676572000000000000000000000000000000000000000000008152506020019050602060405180830381600087803b151561054757600080fd5b6102c65a03f1151561055857600080fd5b5050506040518051905091508173ffffffffffffffffffffffffffffffffffffffff163373ffffffffffffffffffffffffffffffffffffffff161415156105a25760009250610793565b6000809054906101000a900473ffffffffffffffffffffffffffffffffffffffff1673ffffffffffffffffffffffffffffffffffffffff1663e16c7d986000604051602001526040518163ffffffff167c010000000000000000000000000000000000000000000000000000000002815260040180807f63617272696572444200000000000000000000000000000000000000000000008152506020019050602060405180830381600087803b151561065a57600080fd5b6102c65a03f1151561066b57600080fd5b50505060405180519050905060008173ffffffffffffffffffffffffffffffffffffffff16141561069f5760009250610793565b8073ffffffffffffffffffffffffffffffffffffffff166339e115da888888886000604051602001526040518563ffffffff167c01000000000000000000000000000000000000000000000000000000000281526004018085600019166000191681526020018473ffffffffffffffffffffffffffffffffffffffff1673ffffffffffffffffffffffffffffffffffffffff16815260200183600019166000191681526020018260001916600019168152602001945050505050602060405180830381600087803b151561077257600080fd5b6102c65a03f1151561078357600080fd5b5050506040518051905092508292505b5050949350505050565b6000806000809054906101000a900473ffffffffffffffffffffffffffffffffffffffff1673ffffffffffffffffffffffffffffffffffffffff161415801561083357506000809054906101000a900473ffffffffffffffffffffffffffffffffffffffff1673ffffffffffffffffffffffffffffffffffffffff163373ffffffffffffffffffffffffffffffffffffffff1614155b156108415760009050610886565b816000806101000a81548173ffffffffffffffffffffffffffffffffffffffff021916908373ffffffffffffffffffffffffffffffffffffffff160217905550600190505b919050565b6000809054906101000a900473ffffffffffffffffffffffffffffffffffffffff1673ffffffffffffffffffffffffffffffffffffffff163373ffffffffffffffffffffffffffffffffffffffff16141561091a576000809054906101000a900473ffffffffffffffffffffffffffffffffffffffff1673ffffffffffffffffffffffffffffffffffffffff16ff5b565b60008060008060009054906101000a900473ffffffffffffffffffffffffffffffffffffffff1673ffffffffffffffffffffffffffffffffffffffff1663e16c7d986000604051602001526040518163ffffffff167c010000000000000000000000000000000000000000000000000000000002815260040180807f636f694d616e61676572000000000000000000000000000000000000000000008152506020019050602060405180830381600087803b15156109d957600080fd5b6102c65a03f115156109ea57600080fd5b5050506040518051905091508173ffffffffffffffffffffffffffffffffffffffff163373ffffffffffffffffffffffffffffffffffffffff16141515610a345760009250610bd1565b6000809054906101000a900473ffffffffffffffffffffffffffffffffffffffff1673ffffffffffffffffffffffffffffffffffffffff1663e16c7d986000604051602001526040518163ffffffff167c010000000000000000000000000000000000000000000000000000000002815260040180807f63617272696572444200000000000000000000000000000000000000000000008152506020019050602060405180830381600087803b1515610aec57600080fd5b6102c65a03f11515610afd57600080fd5b50505060405180519050905060008173ffffffffffffffffffffffffffffffffffffffff161415610b315760009250610bd1565b8073ffffffffffffffffffffffffffffffffffffffff1663b003c753856000604051602001526040518263ffffffff167c0100000000000000000000000000000000000000000000000000000000028152600401808260001916600019168152602001915050602060405180830381600087803b1515610bb057600080fd5b6102c65a03f11515610bc157600080fd5b5050506040518051905092508292505b50509190505600a165627a7a72305820bfb8f2dc37bc80ceeac67693283121031bab725c4bea20797f52f6ca8b4247490029",
  "source": "pragma solidity ^0.4.4;\nimport \"./DougEnabled.sol\";\nimport \"./Doug.sol\";\nimport \"./DataHelper.sol\";\nimport \"./CarrierDB.sol\";\n\ncontract Carrier is DougEnabled {\n    function createCoi(\n        bytes32 policyNumber,\n        address carrier,\n        bytes32 effectiveDate,\n        bytes32 expirationDate\n    )\n        public returns (bool result)\n    {\n        address manager = Doug(DOUG).getContract(\"coiManager\");\n        if (msg.sender != manager)\n            return false;\n        address carrierDb = Doug(DOUG).getContract(\"carrierDB\");\n        if (carrierDb == 0x0 )\n          return false;\n        result = CarrierDB(carrierDb).createCoi(policyNumber, carrier, effectiveDate, expirationDate);\n        return result;\n    }\n\n    function isCOIActive(bytes32 policyNumber) public view returns (bool result) {\n        address manager = Doug(DOUG).getContract(\"coiManager\");\n        if (msg.sender != manager)\n            return false;\n        address carrierDb = Doug(DOUG).getContract(\"carrierDB\");\n        if (carrierDb == 0x0 )\n          return false;\n        result = CarrierDB(carrierDb).isCOIActive(policyNumber);\n        return result;\n    }\n\n    function cancelCOI(bytes32 policyNumber) public returns (bool result) {\n      address manager = Doug(DOUG).getContract(\"coiManager\");\n      if (msg.sender != manager)\n          return false;\n      address carrierDb = Doug(DOUG).getContract(\"carrierDB\");\n      if (carrierDb == 0x0 )\n        return false;\n      result = CarrierDB(carrierDb).cancelCOI(policyNumber);\n      return result;\n    }\n}\n",
  "sourcePath": "/Users/luismatasalvatierra/CW_REPOS/bcois-cw/contracts/Carrier.sol",
  "compiler": {
    "name": "solc",
    "version": "0.4.19+commit.c4cbbb05.Emscripten.clang"
  },
  "schemaVersion": "1.0.1",
  "updatedAt": "2018-02-24T22:01:04.786Z"
}