{
  "contractName": "COIManager",
  "abi": [
    {
      "constant": false,
      "inputs": [
        {
          "name": "dougAddress",
          "type": "address"
        }
      ],
      "name": "setDougAddress",
      "outputs": [
        {
          "name": "",
          "type": "bool"
        }
      ],
      "payable": false,
      "stateMutability": "nonpayable",
      "type": "function"
    },
    {
      "constant": true,
      "inputs": [],
      "name": "getDougAddress",
      "outputs": [
        {
          "name": "",
          "type": "address"
        }
      ],
      "payable": false,
      "stateMutability": "view",
      "type": "function"
    },
    {
      "constant": false,
      "inputs": [],
      "name": "remove",
      "outputs": [],
      "payable": false,
      "stateMutability": "nonpayable",
      "type": "function"
    },
    {
      "inputs": [],
      "payable": false,
      "stateMutability": "nonpayable",
      "type": "constructor"
    },
    {
      "constant": false,
      "inputs": [
        {
          "name": "policyNumber",
          "type": "bytes32"
        },
        {
          "name": "carrier",
          "type": "address"
        },
        {
          "name": "_owner",
          "type": "address"
        },
        {
          "name": "effectiveDate",
          "type": "bytes32"
        },
        {
          "name": "expirationDate",
          "type": "bytes32"
        }
      ],
      "name": "createCoi",
      "outputs": [
        {
          "name": "result",
          "type": "bool"
        }
      ],
      "payable": false,
      "stateMutability": "nonpayable",
      "type": "function"
    },
    {
      "constant": true,
      "inputs": [
        {
          "name": "policyNumber",
          "type": "bytes32"
        }
      ],
      "name": "getCoi",
      "outputs": [
        {
          "name": "_carrier",
          "type": "address"
        },
        {
          "name": "_owner",
          "type": "address"
        },
        {
          "name": "_status",
          "type": "uint8"
        },
        {
          "name": "_effectiveDate",
          "type": "bytes32"
        },
        {
          "name": "_expirationDate",
          "type": "bytes32"
        }
      ],
      "payable": false,
      "stateMutability": "view",
      "type": "function"
    },
    {
      "constant": true,
      "inputs": [
        {
          "name": "policyNumber",
          "type": "bytes32"
        }
      ],
      "name": "isCOIActive",
      "outputs": [
        {
          "name": "result",
          "type": "bool"
        }
      ],
      "payable": false,
      "stateMutability": "view",
      "type": "function"
    },
    {
      "constant": false,
      "inputs": [
        {
          "name": "policyNumber",
          "type": "bytes32"
        }
      ],
      "name": "cancelCOI",
      "outputs": [
        {
          "name": "result",
          "type": "bool"
        }
      ],
      "payable": false,
      "stateMutability": "nonpayable",
      "type": "function"
    },
    {
      "constant": false,
      "inputs": [
        {
          "name": "_address",
          "type": "address"
        },
        {
          "name": "_perm",
          "type": "uint8"
        }
      ],
      "name": "setPermission",
      "outputs": [],
      "payable": false,
      "stateMutability": "nonpayable",
      "type": "function"
    }
  ],
  "bytecode": "0x6060604052341561000f57600080fd5b33600160006101000a81548173ffffffffffffffffffffffffffffffffffffffff021916908373ffffffffffffffffffffffffffffffffffffffff16021790555061113c8061005f6000396000f30060606040526004361061008e576000357c0100000000000000000000000000000000000000000000000000000000900463ffffffff1680631875f74b1461009357806380e2653e146100d257806381352c1114610123578063921ae01d146101ba578063a7f437791461020f578063b003c75314610224578063ba24919214610263578063dd5ddfe814610330575b600080fd5b341561009e57600080fd5b6100b8600480803560001916906020019091905050610375565b604051808215151515815260200191505060405180910390f35b34156100dd57600080fd5b610109600480803573ffffffffffffffffffffffffffffffffffffffff16906020019091905050610545565b604051808215151515815260200191505060405180910390f35b341561012e57600080fd5b6101a060048080356000191690602001909190803573ffffffffffffffffffffffffffffffffffffffff1690602001909190803573ffffffffffffffffffffffffffffffffffffffff169060200190919080356000191690602001909190803560001916906020019091905050610633565b604051808215151515815260200191505060405180910390f35b34156101c557600080fd5b6101cd61088f565b604051808273ffffffffffffffffffffffffffffffffffffffff1673ffffffffffffffffffffffffffffffffffffffff16815260200191505060405180910390f35b341561021a57600080fd5b6102226108b8565b005b341561022f57600080fd5b610249600480803560001916906020019091905050610949565b604051808215151515815260200191505060405180910390f35b341561026e57600080fd5b610288600480803560001916906020019091905050610aec565b604051808673ffffffffffffffffffffffffffffffffffffffff1673ffffffffffffffffffffffffffffffffffffffff1681526020018573ffffffffffffffffffffffffffffffffffffffff1673ffffffffffffffffffffffffffffffffffffffff1681526020018460028111156102fc57fe5b60ff168152602001836000191660001916815260200182600019166000191681526020019550505050505060405180910390f35b341561033b57600080fd5b610373600480803573ffffffffffffffffffffffffffffffffffffffff1690602001909190803560ff16906020019091905050610d5a565b005b6000806002600481111561038557fe5b61038e33610f4c565b600481111561039957fe5b1415156103a557600080fd5b6000809054906101000a900473ffffffffffffffffffffffffffffffffffffffff1673ffffffffffffffffffffffffffffffffffffffff1663e16c7d986000604051602001526040518163ffffffff167c010000000000000000000000000000000000000000000000000000000002815260040180807f63617272696572000000000000000000000000000000000000000000000000008152506020019050602060405180830381600087803b151561045d57600080fd5b6102c65a03f1151561046e57600080fd5b50505060405180519050905060008173ffffffffffffffffffffffffffffffffffffffff16141515156104a057600080fd5b8073ffffffffffffffffffffffffffffffffffffffff16631875f74b846000604051602001526040518263ffffffff167c0100000000000000000000000000000000000000000000000000000000028152600401808260001916600019168152602001915050602060405180830381600087803b151561051f57600080fd5b6102c65a03f1151561053057600080fd5b50505060405180519050915081915050919050565b6000806000809054906101000a900473ffffffffffffffffffffffffffffffffffffffff1673ffffffffffffffffffffffffffffffffffffffff16141580156105db57506000809054906101000a900473ffffffffffffffffffffffffffffffffffffffff1673ffffffffffffffffffffffffffffffffffffffff163373ffffffffffffffffffffffffffffffffffffffff1614155b156105e9576000905061062e565b816000806101000a81548173ffffffffffffffffffffffffffffffffffffffff021916908373ffffffffffffffffffffffffffffffffffffffff160217905550600190505b919050565b6000806002600481111561064357fe5b61064c33610f4c565b600481111561065757fe5b14151561066357600080fd5b6000809054906101000a900473ffffffffffffffffffffffffffffffffffffffff1673ffffffffffffffffffffffffffffffffffffffff1663e16c7d986000604051602001526040518163ffffffff167c010000000000000000000000000000000000000000000000000000000002815260040180807f63617272696572000000000000000000000000000000000000000000000000008152506020019050602060405180830381600087803b151561071b57600080fd5b6102c65a03f1151561072c57600080fd5b50505060405180519050905060008173ffffffffffffffffffffffffffffffffffffffff161415151561075e57600080fd5b8073ffffffffffffffffffffffffffffffffffffffff166381352c1188888888886000604051602001526040518663ffffffff167c01000000000000000000000000000000000000000000000000000000000281526004018086600019166000191681526020018573ffffffffffffffffffffffffffffffffffffffff1673ffffffffffffffffffffffffffffffffffffffff1681526020018473ffffffffffffffffffffffffffffffffffffffff1673ffffffffffffffffffffffffffffffffffffffff1681526020018360001916600019168152602001826000191660001916815260200195505050505050602060405180830381600087803b151561086557600080fd5b6102c65a03f1151561087657600080fd5b5050506040518051905091508191505095945050505050565b60008060009054906101000a900473ffffffffffffffffffffffffffffffffffffffff16905090565b6000809054906101000a900473ffffffffffffffffffffffffffffffffffffffff1673ffffffffffffffffffffffffffffffffffffffff163373ffffffffffffffffffffffffffffffffffffffff161415610947576000809054906101000a900473ffffffffffffffffffffffffffffffffffffffff1673ffffffffffffffffffffffffffffffffffffffff16ff5b565b6000806000809054906101000a900473ffffffffffffffffffffffffffffffffffffffff1673ffffffffffffffffffffffffffffffffffffffff1663e16c7d986000604051602001526040518163ffffffff167c010000000000000000000000000000000000000000000000000000000002815260040180807f63617272696572000000000000000000000000000000000000000000000000008152506020019050602060405180830381600087803b1515610a0457600080fd5b6102c65a03f11515610a1557600080fd5b50505060405180519050905060008173ffffffffffffffffffffffffffffffffffffffff1614151515610a4757600080fd5b8073ffffffffffffffffffffffffffffffffffffffff1663b003c753846000604051602001526040518263ffffffff167c0100000000000000000000000000000000000000000000000000000000028152600401808260001916600019168152602001915050602060405180830381600087803b1515610ac657600080fd5b6102c65a03f11515610ad757600080fd5b50505060405180519050915081915050919050565b6000806000806000806000809054906101000a900473ffffffffffffffffffffffffffffffffffffffff1673ffffffffffffffffffffffffffffffffffffffff1663e16c7d986000604051602001526040518163ffffffff167c010000000000000000000000000000000000000000000000000000000002815260040180807f63617272696572000000000000000000000000000000000000000000000000008152506020019050602060405180830381600087803b1515610bad57600080fd5b6102c65a03f11515610bbe57600080fd5b50505060405180519050905060008173ffffffffffffffffffffffffffffffffffffffff1614151515610bf057600080fd5b8073ffffffffffffffffffffffffffffffffffffffff1663ba24919288600060405160a001526040518263ffffffff167c010000000000000000000000000000000000000000000000000000000002815260040180826000191660001916815260200191505060a060405180830381600087803b1515610c6f57600080fd5b6102c65a03f11515610c8057600080fd5b50505060405180519060200180519060200180519060200180519060200180519050809650819750829850839950849a5050505050508473ffffffffffffffffffffffffffffffffffffffff163373ffffffffffffffffffffffffffffffffffffffff161480610d1b57508573ffffffffffffffffffffffffffffffffffffffff163373ffffffffffffffffffffffffffffffffffffffff16145b80610d3957506002610d2c33610f4c565b6004811115610d3757fe5b115b1515610d4157fe5b8585858585955095509550955095505091939590929450565b6000600480811115610d6857fe5b610d7133610f4c565b6004811115610d7c57fe5b141515610d8857600080fd5b6000809054906101000a900473ffffffffffffffffffffffffffffffffffffffff1673ffffffffffffffffffffffffffffffffffffffff1663e16c7d986000604051602001526040518163ffffffff167c010000000000000000000000000000000000000000000000000000000002815260040180807f7065726d000000000000000000000000000000000000000000000000000000008152506020019050602060405180830381600087803b1515610e4057600080fd5b6102c65a03f11515610e5157600080fd5b50505060405180519050905060008173ffffffffffffffffffffffffffffffffffffffff1614151515610e8357600080fd5b8073ffffffffffffffffffffffffffffffffffffffff1663dd5ddfe884846040518363ffffffff167c0100000000000000000000000000000000000000000000000000000000028152600401808373ffffffffffffffffffffffffffffffffffffffff1673ffffffffffffffffffffffffffffffffffffffff168152602001826004811115610f0e57fe5b60ff16815260200192505050600060405180830381600087803b1515610f3357600080fd5b6102c65a03f11515610f4457600080fd5b505050505050565b6000806000809054906101000a900473ffffffffffffffffffffffffffffffffffffffff1673ffffffffffffffffffffffffffffffffffffffff1663e16c7d986000604051602001526040518163ffffffff167c010000000000000000000000000000000000000000000000000000000002815260040180807f7065726d000000000000000000000000000000000000000000000000000000008152506020019050602060405180830381600087803b151561100757600080fd5b6102c65a03f1151561101857600080fd5b50505060405180519050905060008173ffffffffffffffffffffffffffffffffffffffff161415151561104a57600080fd5b8073ffffffffffffffffffffffffffffffffffffffff166383c1cd8a846000604051602001526040518263ffffffff167c0100000000000000000000000000000000000000000000000000000000028152600401808273ffffffffffffffffffffffffffffffffffffffff1673ffffffffffffffffffffffffffffffffffffffff168152602001915050602060405180830381600087803b15156110ed57600080fd5b6102c65a03f115156110fe57600080fd5b505050604051805190509150509190505600a165627a7a72305820acaebfcf279fb7f6f4f119811d14681f56e328b960becbae397498fea5c4f9210029",
  "source": "pragma solidity ^0.4.4;\nimport \"./Doug.sol\";\nimport \"./DataHelper.sol\";\nimport \"./Carrier.sol\";\nimport \"./DougEnabled.sol\";\nimport \"./Permission.sol\";\n\ncontract COIManager is DougEnabled {\n    address owner;\n\n    function COIManager() public {\n        owner = msg.sender;\n    }\n\n    modifier isAdmin() {\n        require(getPermission(msg.sender) == DataHelper.Permission.Admin);\n        _;\n    }\n\n    modifier isAgency() {\n        require(getPermission(msg.sender) == DataHelper.Permission.Agency);\n        _;\n    }\n\n    function createCoi(\n        bytes32 policyNumber,\n        address carrier,\n        address _owner,\n        bytes32 effectiveDate,\n        bytes32 expirationDate\n    )\n        isAgency public returns (bool result)\n    {\n        address name_carrier = Doug(DOUG).getContract(\"carrier\");\n        require(name_carrier != 0x0);\n        result = Carrier(name_carrier).createCoi(policyNumber, carrier, _owner, effectiveDate, expirationDate);\n        return result;\n    }\n\n    function getCoi(bytes32 policyNumber) public view\n        returns(address _carrier, address _owner, DataHelper.Stage _status, bytes32 _effectiveDate, bytes32 _expirationDate)\n    {\n        address carrier = Doug(DOUG).getContract(\"carrier\");\n        require (carrier != 0x0);\n        (_carrier, _owner, _status, _effectiveDate, _expirationDate) = Carrier(carrier).getCoi(policyNumber);\n        assert(msg.sender == _owner || msg.sender == _carrier || uint(getPermission(msg.sender)) > 2);\n        return (_carrier, _owner, _status, _effectiveDate, _expirationDate);\n    }\n\n    function isCOIActive(bytes32 policyNumber) public view returns (bool result) {\n        address carrier = Doug(DOUG).getContract(\"carrier\");\n        require (carrier != 0x0);\n        result = Carrier(carrier).isCOIActive(policyNumber);\n        return result;\n    }\n\n    function cancelCOI(bytes32 policyNumber) isAgency public returns (bool result) {\n        address carrier = Doug(DOUG).getContract(\"carrier\");\n        require (carrier != 0x0);\n        result = Carrier(carrier).cancelCOI(policyNumber);\n        return result;\n    }\n\n    function setPermission(address _address, DataHelper.Permission _perm) isAdmin public {\n        address perm = Doug(DOUG).getContract(\"perm\");\n        require (perm != 0x0);\n        Permission(perm).setPermission(_address, _perm);\n    }\n\n    function getPermission(address _address) private view returns (DataHelper.Permission result) {\n        address perm = Doug(DOUG).getContract(\"perm\");\n        require (perm != 0x0);\n        result = Permission(perm).getPermission(_address);\n    }\n}\n",
  "sourcePath": "/Users/luismatasalvatierra/CW_REPOS/bcois-cw/contracts/COIManager.sol",
  "compiler": {
    "name": "solc",
    "version": "0.4.19+commit.c4cbbb05.Emscripten.clang"
  },
  "schemaVersion": "1.0.1",
  "updatedAt": "2018-03-06T16:44:23.320Z"
}