{
  "contractName": "COIManager",
  "abi": [
    {
      "constant": false,
      "inputs": [
        {
          "name": "dougAddress",
          "type": "address"
        }
      ],
      "name": "setDougAddress",
      "outputs": [
        {
          "name": "",
          "type": "bool"
        }
      ],
      "payable": false,
      "stateMutability": "nonpayable",
      "type": "function"
    },
    {
      "constant": true,
      "inputs": [],
      "name": "getDougAddress",
      "outputs": [
        {
          "name": "",
          "type": "address"
        }
      ],
      "payable": false,
      "stateMutability": "view",
      "type": "function"
    },
    {
      "constant": false,
      "inputs": [],
      "name": "remove",
      "outputs": [],
      "payable": false,
      "stateMutability": "nonpayable",
      "type": "function"
    },
    {
      "inputs": [],
      "payable": false,
      "stateMutability": "nonpayable",
      "type": "constructor"
    },
    {
      "constant": false,
      "inputs": [
        {
          "name": "policyNumber",
          "type": "bytes32"
        },
        {
          "name": "carrier",
          "type": "address"
        },
        {
          "name": "effectiveDate",
          "type": "bytes32"
        },
        {
          "name": "expirationDate",
          "type": "bytes32"
        }
      ],
      "name": "createCoi",
      "outputs": [
        {
          "name": "result",
          "type": "bool"
        }
      ],
      "payable": false,
      "stateMutability": "nonpayable",
      "type": "function"
    },
    {
      "constant": true,
      "inputs": [
        {
          "name": "policyNumber",
          "type": "bytes32"
        }
      ],
      "name": "getCoi",
      "outputs": [
        {
          "name": "",
          "type": "address"
        },
        {
          "name": "",
          "type": "uint8"
        },
        {
          "name": "",
          "type": "bytes32"
        },
        {
          "name": "",
          "type": "bytes32"
        }
      ],
      "payable": false,
      "stateMutability": "view",
      "type": "function"
    },
    {
      "constant": true,
      "inputs": [
        {
          "name": "policyNumber",
          "type": "bytes32"
        }
      ],
      "name": "isCOIActive",
      "outputs": [
        {
          "name": "result",
          "type": "bool"
        }
      ],
      "payable": false,
      "stateMutability": "view",
      "type": "function"
    },
    {
      "constant": false,
      "inputs": [
        {
          "name": "policyNumber",
          "type": "bytes32"
        }
      ],
      "name": "cancelCOI",
      "outputs": [
        {
          "name": "result",
          "type": "bool"
        }
      ],
      "payable": false,
      "stateMutability": "nonpayable",
      "type": "function"
    }
  ],
  "bytecode": "0x6060604052341561000f57600080fd5b33600160006101000a81548173ffffffffffffffffffffffffffffffffffffffff021916908373ffffffffffffffffffffffffffffffffffffffff160217905550610bc48061005f6000396000f300606060405260043610610083576000357c0100000000000000000000000000000000000000000000000000000000900463ffffffff1680631875f74b1461008857806339e115da146100c757806380e2653e1461013f578063921ae01d14610190578063a7f43779146101e5578063b003c753146101fa578063ba24919214610239575b600080fd5b341561009357600080fd5b6100ad6004808035600019169060200190919050506102d3565b604051808215151515815260200191505060405180910390f35b34156100d257600080fd5b61012560048080356000191690602001909190803573ffffffffffffffffffffffffffffffffffffffff169060200190919080356000191690602001909190803560001916906020019091905050610479565b604051808215151515815260200191505060405180910390f35b341561014a57600080fd5b610176600480803573ffffffffffffffffffffffffffffffffffffffff16906020019091905050610676565b604051808215151515815260200191505060405180910390f35b341561019b57600080fd5b6101a3610764565b604051808273ffffffffffffffffffffffffffffffffffffffff1673ffffffffffffffffffffffffffffffffffffffff16815260200191505060405180910390f35b34156101f057600080fd5b6101f861078d565b005b341561020557600080fd5b61021f60048080356000191690602001909190505061081e565b604051808215151515815260200191505060405180910390f35b341561024457600080fd5b61025e6004808035600019169060200190919050506109c4565b604051808573ffffffffffffffffffffffffffffffffffffffff1673ffffffffffffffffffffffffffffffffffffffff1681526020018460028111156102a057fe5b60ff1681526020018360001916600019168152602001826000191660001916815260200194505050505060405180910390f35b6000806000809054906101000a900473ffffffffffffffffffffffffffffffffffffffff1673ffffffffffffffffffffffffffffffffffffffff1663e16c7d986000604051602001526040518163ffffffff167c010000000000000000000000000000000000000000000000000000000002815260040180807f63617272696572000000000000000000000000000000000000000000000000008152506020019050602060405180830381600087803b151561038e57600080fd5b6102c65a03f1151561039f57600080fd5b50505060405180519050905060008173ffffffffffffffffffffffffffffffffffffffff1614156103d35760009150610473565b8073ffffffffffffffffffffffffffffffffffffffff16631875f74b846000604051602001526040518263ffffffff167c0100000000000000000000000000000000000000000000000000000000028152600401808260001916600019168152602001915050602060405180830381600087803b151561045257600080fd5b6102c65a03f1151561046357600080fd5b5050506040518051905091508191505b50919050565b6000806000809054906101000a900473ffffffffffffffffffffffffffffffffffffffff1673ffffffffffffffffffffffffffffffffffffffff1663e16c7d986000604051602001526040518163ffffffff167c010000000000000000000000000000000000000000000000000000000002815260040180807f63617272696572000000000000000000000000000000000000000000000000008152506020019050602060405180830381600087803b151561053457600080fd5b6102c65a03f1151561054557600080fd5b50505060405180519050905060008173ffffffffffffffffffffffffffffffffffffffff161415610579576000915061066d565b8073ffffffffffffffffffffffffffffffffffffffff166339e115da878787876000604051602001526040518563ffffffff167c01000000000000000000000000000000000000000000000000000000000281526004018085600019166000191681526020018473ffffffffffffffffffffffffffffffffffffffff1673ffffffffffffffffffffffffffffffffffffffff16815260200183600019166000191681526020018260001916600019168152602001945050505050602060405180830381600087803b151561064c57600080fd5b6102c65a03f1151561065d57600080fd5b5050506040518051905091508191505b50949350505050565b6000806000809054906101000a900473ffffffffffffffffffffffffffffffffffffffff1673ffffffffffffffffffffffffffffffffffffffff161415801561070c57506000809054906101000a900473ffffffffffffffffffffffffffffffffffffffff1673ffffffffffffffffffffffffffffffffffffffff163373ffffffffffffffffffffffffffffffffffffffff1614155b1561071a576000905061075f565b816000806101000a81548173ffffffffffffffffffffffffffffffffffffffff021916908373ffffffffffffffffffffffffffffffffffffffff160217905550600190505b919050565b60008060009054906101000a900473ffffffffffffffffffffffffffffffffffffffff16905090565b6000809054906101000a900473ffffffffffffffffffffffffffffffffffffffff1673ffffffffffffffffffffffffffffffffffffffff163373ffffffffffffffffffffffffffffffffffffffff16141561081c576000809054906101000a900473ffffffffffffffffffffffffffffffffffffffff1673ffffffffffffffffffffffffffffffffffffffff16ff5b565b6000806000809054906101000a900473ffffffffffffffffffffffffffffffffffffffff1673ffffffffffffffffffffffffffffffffffffffff1663e16c7d986000604051602001526040518163ffffffff167c010000000000000000000000000000000000000000000000000000000002815260040180807f63617272696572000000000000000000000000000000000000000000000000008152506020019050602060405180830381600087803b15156108d957600080fd5b6102c65a03f115156108ea57600080fd5b50505060405180519050905060008173ffffffffffffffffffffffffffffffffffffffff16141561091e57600091506109be565b8073ffffffffffffffffffffffffffffffffffffffff1663b003c753846000604051602001526040518263ffffffff167c0100000000000000000000000000000000000000000000000000000000028152600401808260001916600019168152602001915050602060405180830381600087803b151561099d57600080fd5b6102c65a03f115156109ae57600080fd5b5050506040518051905091508191505b50919050565b60008060008060008060008060008060009054906101000a900473ffffffffffffffffffffffffffffffffffffffff1673ffffffffffffffffffffffffffffffffffffffff1663e16c7d986000604051602001526040518163ffffffff167c010000000000000000000000000000000000000000000000000000000002815260040180807f63617272696572000000000000000000000000000000000000000000000000008152506020019050602060405180830381600087803b1515610a8a57600080fd5b6102c65a03f11515610a9b57600080fd5b50505060405180519050945060008573ffffffffffffffffffffffffffffffffffffffff161415610acb57610b8c565b8473ffffffffffffffffffffffffffffffffffffffff1663ba2491928b6000604051608001526040518263ffffffff167c0100000000000000000000000000000000000000000000000000000000028152600401808260001916600019168152602001915050608060405180830381600087803b1515610b4a57600080fd5b6102c65a03f11515610b5b57600080fd5b5050506040518051906020018051906020018051906020018051905093509350935093508383838398509850985098505b505050505091935091935600a165627a7a72305820345b5034b18a1871c02f090fc87fc25b806b7ef8da8a82bf4ec9486f08ced16a0029",
  "source": "pragma solidity ^0.4.4;\nimport \"./Doug.sol\";\nimport \"./DataHelper.sol\";\nimport \"./Carrier.sol\";\nimport \"./DougEnabled.sol\";\n\ncontract COIManager is DougEnabled {\n    address owner;\n\n    function COIManager() public {\n        owner = msg.sender;\n    }\n\n    function createCoi(\n        bytes32 policyNumber,\n        address carrier,\n        bytes32 effectiveDate,\n        bytes32 expirationDate\n    )\n        public returns (bool result)\n    {\n        address name_carrier = Doug(DOUG).getContract(\"carrier\");\n        if (name_carrier == 0x0 )\n          return false;\n        result = Carrier(name_carrier).createCoi(policyNumber, carrier, effectiveDate, expirationDate);\n        return result;\n    }\n\n    function getCoi(bytes32 policyNumber) public view\n        returns(address, DataHelper.Stage, bytes32, bytes32)\n    {\n        address carrier = Doug(DOUG).getContract(\"carrier\");\n        if (carrier == 0x0 )\n          return;\n        var (_carrier, _status, _effectiveDate, _expirationDate) = Carrier(carrier).getCoi(policyNumber);\n        return (_carrier, _status, _effectiveDate, _expirationDate);\n    }\n\n    function isCOIActive(bytes32 policyNumber) public view returns (bool result) {\n        address carrier = Doug(DOUG).getContract(\"carrier\");\n        if (carrier == 0x0 )\n          return false;\n        result = Carrier(carrier).isCOIActive(policyNumber);\n        return result;\n    }\n\n    function cancelCOI(bytes32 policyNumber) public returns (bool result) {\n      address carrier = Doug(DOUG).getContract(\"carrier\");\n      if (carrier == 0x0 )\n        return false;\n      result = Carrier(carrier).cancelCOI(policyNumber);\n      return result;\n    }\n}\n",
  "sourcePath": "/Users/luismatasalvatierra/CW_REPOS/bcois-cw/contracts/COIManager.sol",
  "compiler": {
    "name": "solc",
    "version": "0.4.19+commit.c4cbbb05.Emscripten.clang"
  },
  "schemaVersion": "1.0.1",
  "updatedAt": "2018-02-27T14:40:09.278Z"
}