{
  "contractName": "COIManager",
  "abi": [
    {
      "constant": false,
      "inputs": [
        {
          "name": "dougAddress",
          "type": "address"
        }
      ],
      "name": "setDougAddress",
      "outputs": [
        {
          "name": "",
          "type": "bool"
        }
      ],
      "payable": false,
      "stateMutability": "nonpayable",
      "type": "function"
    },
    {
      "constant": false,
      "inputs": [],
      "name": "remove",
      "outputs": [],
      "payable": false,
      "stateMutability": "nonpayable",
      "type": "function"
    },
    {
      "inputs": [],
      "payable": false,
      "stateMutability": "nonpayable",
      "type": "constructor"
    },
    {
      "constant": false,
      "inputs": [
        {
          "name": "policyNumber",
          "type": "bytes32"
        },
        {
          "name": "carrier",
          "type": "address"
        },
        {
          "name": "effectiveDate",
          "type": "bytes32"
        },
        {
          "name": "expirationDate",
          "type": "bytes32"
        }
      ],
      "name": "createCoi",
      "outputs": [
        {
          "name": "result",
          "type": "bool"
        }
      ],
      "payable": false,
      "stateMutability": "nonpayable",
      "type": "function"
    },
    {
      "constant": true,
      "inputs": [
        {
          "name": "policyNumber",
          "type": "bytes32"
        }
      ],
      "name": "isCOIActive",
      "outputs": [
        {
          "name": "result",
          "type": "bool"
        }
      ],
      "payable": false,
      "stateMutability": "view",
      "type": "function"
    },
    {
      "constant": false,
      "inputs": [
        {
          "name": "policyNumber",
          "type": "bytes32"
        }
      ],
      "name": "cancelCOI",
      "outputs": [
        {
          "name": "result",
          "type": "bool"
        }
      ],
      "payable": false,
      "stateMutability": "nonpayable",
      "type": "function"
    }
  ],
  "bytecode": "0x6060604052341561000f57600080fd5b33600160006101000a81548173ffffffffffffffffffffffffffffffffffffffff021916908373ffffffffffffffffffffffffffffffffffffffff1602179055506108c28061005f6000396000f30060606040526004361061006d576000357c0100000000000000000000000000000000000000000000000000000000900463ffffffff1680631875f74b1461007257806339e115da146100b157806380e2653e14610129578063a7f437791461017a578063b003c7531461018f575b600080fd5b341561007d57600080fd5b6100976004808035600019169060200190919050506101ce565b604051808215151515815260200191505060405180910390f35b34156100bc57600080fd5b61010f60048080356000191690602001909190803573ffffffffffffffffffffffffffffffffffffffff169060200190919080356000191690602001909190803560001916906020019091905050610374565b604051808215151515815260200191505060405180910390f35b341561013457600080fd5b610160600480803573ffffffffffffffffffffffffffffffffffffffff16906020019091905050610571565b604051808215151515815260200191505060405180910390f35b341561018557600080fd5b61018d61065f565b005b341561019a57600080fd5b6101b46004808035600019169060200190919050506106f0565b604051808215151515815260200191505060405180910390f35b6000806000809054906101000a900473ffffffffffffffffffffffffffffffffffffffff1673ffffffffffffffffffffffffffffffffffffffff1663e16c7d986000604051602001526040518163ffffffff167c010000000000000000000000000000000000000000000000000000000002815260040180807f63617272696572000000000000000000000000000000000000000000000000008152506020019050602060405180830381600087803b151561028957600080fd5b6102c65a03f1151561029a57600080fd5b50505060405180519050905060008173ffffffffffffffffffffffffffffffffffffffff1614156102ce576000915061036e565b8073ffffffffffffffffffffffffffffffffffffffff16631875f74b846000604051602001526040518263ffffffff167c0100000000000000000000000000000000000000000000000000000000028152600401808260001916600019168152602001915050602060405180830381600087803b151561034d57600080fd5b6102c65a03f1151561035e57600080fd5b5050506040518051905091508191505b50919050565b6000806000809054906101000a900473ffffffffffffffffffffffffffffffffffffffff1673ffffffffffffffffffffffffffffffffffffffff1663e16c7d986000604051602001526040518163ffffffff167c010000000000000000000000000000000000000000000000000000000002815260040180807f63617272696572000000000000000000000000000000000000000000000000008152506020019050602060405180830381600087803b151561042f57600080fd5b6102c65a03f1151561044057600080fd5b50505060405180519050905060008173ffffffffffffffffffffffffffffffffffffffff1614156104745760009150610568565b8073ffffffffffffffffffffffffffffffffffffffff166339e115da878787876000604051602001526040518563ffffffff167c01000000000000000000000000000000000000000000000000000000000281526004018085600019166000191681526020018473ffffffffffffffffffffffffffffffffffffffff1673ffffffffffffffffffffffffffffffffffffffff16815260200183600019166000191681526020018260001916600019168152602001945050505050602060405180830381600087803b151561054757600080fd5b6102c65a03f1151561055857600080fd5b5050506040518051905091508191505b50949350505050565b6000806000809054906101000a900473ffffffffffffffffffffffffffffffffffffffff1673ffffffffffffffffffffffffffffffffffffffff161415801561060757506000809054906101000a900473ffffffffffffffffffffffffffffffffffffffff1673ffffffffffffffffffffffffffffffffffffffff163373ffffffffffffffffffffffffffffffffffffffff1614155b15610615576000905061065a565b816000806101000a81548173ffffffffffffffffffffffffffffffffffffffff021916908373ffffffffffffffffffffffffffffffffffffffff160217905550600190505b919050565b6000809054906101000a900473ffffffffffffffffffffffffffffffffffffffff1673ffffffffffffffffffffffffffffffffffffffff163373ffffffffffffffffffffffffffffffffffffffff1614156106ee576000809054906101000a900473ffffffffffffffffffffffffffffffffffffffff1673ffffffffffffffffffffffffffffffffffffffff16ff5b565b6000806000809054906101000a900473ffffffffffffffffffffffffffffffffffffffff1673ffffffffffffffffffffffffffffffffffffffff1663e16c7d986000604051602001526040518163ffffffff167c010000000000000000000000000000000000000000000000000000000002815260040180807f63617272696572000000000000000000000000000000000000000000000000008152506020019050602060405180830381600087803b15156107ab57600080fd5b6102c65a03f115156107bc57600080fd5b50505060405180519050905060008173ffffffffffffffffffffffffffffffffffffffff1614156107f05760009150610890565b8073ffffffffffffffffffffffffffffffffffffffff1663b003c753846000604051602001526040518263ffffffff167c0100000000000000000000000000000000000000000000000000000000028152600401808260001916600019168152602001915050602060405180830381600087803b151561086f57600080fd5b6102c65a03f1151561088057600080fd5b5050506040518051905091508191505b509190505600a165627a7a72305820b97db8816be17e09e217b56c0d9303a93e9b511bcd4c80e23f1c008f580334540029",
  "source": "pragma solidity ^0.4.4;\nimport \"./Doug.sol\";\nimport \"./DataHelper.sol\";\nimport \"./Carrier.sol\";\nimport \"./DougEnabled.sol\";\n\ncontract COIManager is DougEnabled {\n    address owner;\n\n    function COIManager() public {\n        owner = msg.sender;\n    }\n\n    function createCoi(\n        bytes32 policyNumber,\n        address carrier,\n        bytes32 effectiveDate,\n        bytes32 expirationDate\n    )\n        public returns (bool result)\n    {\n        address name_carrier = Doug(DOUG).getContract(\"carrier\");\n        if (name_carrier == 0x0 )\n          return false;\n        result = Carrier(name_carrier).createCoi(policyNumber, carrier, effectiveDate, expirationDate);\n        return result;\n    }\n\n    function isCOIActive(bytes32 policyNumber) public view returns (bool result) {\n        address carrier = Doug(DOUG).getContract(\"carrier\");\n        if (carrier == 0x0 )\n          return false;\n        result = Carrier(carrier).isCOIActive(policyNumber);\n        return result;\n    }\n\n    function cancelCOI(bytes32 policyNumber) public returns (bool result) {\n      address carrier = Doug(DOUG).getContract(\"carrier\");\n      if (carrier == 0x0 )\n        return false;\n      result = Carrier(carrier).cancelCOI(policyNumber);\n      return result;\n    }\n}\n",
  "sourcePath": "/Users/luismatasalvatierra/CW_REPOS/bcois-cw/contracts/COIManager.sol",
  "compiler": {
    "name": "solc",
    "version": "0.4.19+commit.c4cbbb05.Emscripten.clang"
  },
  "schemaVersion": "1.0.1",
  "updatedAt": "2018-02-24T22:01:04.787Z"
}