{
  "contractName": "DougEnabled",
  "abi": [
    {
      "constant": false,
      "inputs": [
        {
          "name": "dougAddress",
          "type": "address"
        }
      ],
      "name": "setDougAddress",
      "outputs": [
        {
          "name": "",
          "type": "bool"
        }
      ],
      "payable": false,
      "stateMutability": "nonpayable",
      "type": "function"
    },
    {
      "constant": false,
      "inputs": [],
      "name": "remove",
      "outputs": [],
      "payable": false,
      "stateMutability": "nonpayable",
      "type": "function"
    },
    {
      "constant": true,
      "inputs": [],
      "name": "getDougAddress",
      "outputs": [
        {
          "name": "",
          "type": "address"
        }
      ],
      "payable": false,
      "stateMutability": "view",
      "type": "function"
    }
  ],
  "bytecode": "0x6060604052341561000f57600080fd5b6102eb8061001e6000396000f300606060405260043610610057576000357c0100000000000000000000000000000000000000000000000000000000900463ffffffff16806380e2653e1461005c578063921ae01d146100ad578063a7f4377914610102575b600080fd5b341561006757600080fd5b610093600480803573ffffffffffffffffffffffffffffffffffffffff16906020019091905050610117565b604051808215151515815260200191505060405180910390f35b34156100b857600080fd5b6100c0610205565b604051808273ffffffffffffffffffffffffffffffffffffffff1673ffffffffffffffffffffffffffffffffffffffff16815260200191505060405180910390f35b341561010d57600080fd5b61011561022e565b005b6000806000809054906101000a900473ffffffffffffffffffffffffffffffffffffffff1673ffffffffffffffffffffffffffffffffffffffff16141580156101ad57506000809054906101000a900473ffffffffffffffffffffffffffffffffffffffff1673ffffffffffffffffffffffffffffffffffffffff163373ffffffffffffffffffffffffffffffffffffffff1614155b156101bb5760009050610200565b816000806101000a81548173ffffffffffffffffffffffffffffffffffffffff021916908373ffffffffffffffffffffffffffffffffffffffff160217905550600190505b919050565b60008060009054906101000a900473ffffffffffffffffffffffffffffffffffffffff16905090565b6000809054906101000a900473ffffffffffffffffffffffffffffffffffffffff1673ffffffffffffffffffffffffffffffffffffffff163373ffffffffffffffffffffffffffffffffffffffff1614156102bd576000809054906101000a900473ffffffffffffffffffffffffffffffffffffffff1673ffffffffffffffffffffffffffffffffffffffff16ff5b5600a165627a7a72305820a17814adf29092d99698d4dc104b2db285a390756b25251a86501c7544be8fe10029",
  "source": "pragma solidity ^0.4.4;\n\ncontract DougEnabled {\n    address DOUG;\n\n    function setDougAddress(address dougAddress) public returns (bool) {\n        if(DOUG != 0x0 && msg.sender != DOUG)\n            return false;\n        DOUG = dougAddress;\n        return true;\n    }\n\n    function remove() public {\n        if(msg.sender == DOUG){\n            selfdestruct(DOUG);\n        }\n    }\n\n    function getDougAddress() public view returns (address) {\n        return DOUG;\n    }\n}\n",
  "sourcePath": "/Users/luismatasalvatierra/CW_REPOS/bcois-cw/contracts/DougEnabled.sol",
  "compiler": {
    "name": "solc",
    "version": "0.4.19+commit.c4cbbb05.Emscripten.clang"
  },
  "schemaVersion": "1.0.1",
  "updatedAt": "2018-03-06T16:44:23.315Z"
}